:020000040800F2
:10000000A0E9002461040008A17900082177000814
:1000100099790008F9220008018600080000000014
:1000200000000000000000000000000071800008D7
:100030001928000800000000217A0008B980000893
:100040007F0400087F0400087F0400087F04000884
:100050007F0400087F0400087F0400087F04000874
:100060007F0400087F0400087F0400087F04000864
:100070007F0400087F0400087F0400087F04000854
:100080007F0400087F0400087F0400087F04000844
:100090007F0400087F0400087F0400087F04000834
:1000A0007F0400087F0400087F0400087F04000824
:1000B0007F0400087F0400087F0400087F04000814
:1000C0007F0400087F0400087F0400087F04000804
:1000D0007F0400087F0400087F0400087F040008F4
:1000E0007F0400087F040008000000007F0400086F
:1000F0007F0400087F0400087F0400087F040008D4
:100100007F0400087F0400087F0400087F040008C3
:100110007F0400087F0400087F0400087F040008B3
:100120007F0400087F0400087F0400087F040008A3
:100130007F0400087F0400087F0400087F04000893
:1001400000000000000000000000000000000000AF
:100150007F0400087F0400087F0400087F04000873
:100160007F0400087F0400087F0400087F04000863
:100170007F0400087F0400087F04000800000000DE
:100180007F0400087F0400087F0400087F04000843
:100190007F0400087F0400087F0400087F04000833
:1001A0007F0400087F0400087F04000800000000AE
:1001B0007F0400087F0400087F0400087F04000813
:1001C0007F0400087F040008000000000000000019
:1001D00000000000000000007F0400080000000094
:1001E000000000000000000000000000000000000F
:1001F00000000000000000007F0400087F040008E9
:100200007F0400087F040008000000007F0400084D
:100210007F040008198300087F0400087F04000899
:100220007F040008000000007F04000800000000B8
:100230007F0400087F040008000000007F0400081D
:100240007F0400087F0400087F0400087F04000882
:100250007F0400087F0400087F0400087F04000872
:100260007F0400087F0400087F0400087F04000862
:100270007F0400087F0400087F04000800000000DD
:100280007F0400087F0400087F0400087F04000842
:10029000000000007F0400087F0400080000000048
:1002A000000000007F0400087F0400087F040008AD
:1002B0007F0400087F0400087F0400087F04000812
:1002C0007F0400087F0400087F04000800F002F8A3
:1002D00000F0B7F814A696E8000CB244B344DA452F
:1002E00001D100F0AEF8BAE80F000FA696E8300092
:1002F000A5EB040504EB0607AAEB0704A7F1010729
:100300004FEA15154FEA3414A4F10104AC4201D3AD
:1003100000F097F813F0010F18BFFB1A43F0010328
:1003200000F001F8DBE7184730FD000050FD000049
:10033000103A24BF78C878C1FAD8520724BF30C811
:1003400030C144BF04680C60704700007047000073
:100350000023002400250026103A28BF78C1FBD8CE
:10036000520728BF30C148BF0B6070476E2900F0AC
:100370003D83702900F0738466290FF0B6836529E8
:100380000FF0B38367290FF0B08361290FF0AF83BB
:1003900003681B0A28BF41F08001692900F0EA8246
:1003A000642900F0E782752900F0E4826F2900F0EB
:1003B0000184782900F03F84E92900F09B83E42937
:1003C00000F09883F52900F09583EF2900F0FE8373
:1003D000F82900F03E840368DB0928BF41F0800162
:1003E000632901F0B782732901F0BC82E32901F08F
:1003F000C782F32901F0CC82002070471FB50FF0AF
:1004000067FB9DE8030000F01DFA01F01FFC0400EB
:10041000002000210FF046FB401C606000200021FE
:100420000FF02AFBE06000F0B7FD00F0E7FC00F001
:10043000E9F81FBD10B5002000F07CFD00F047FD7D
:1004400010BD00F0FCFD1146FFF7D8FF0BF098F946
:1004500001F08CFB03B4FFF7EDFF03BC00F0CAF919
:100460000A4880470A4880470A480047FEE7FEE7F7
:10047000FEE7FEE7FEE7FEE7FEE7FEE7FEE7FEE754
:1004800005480649064A074B704700003128000816
:10049000B1810008CD020008A0E30024A0E90024F7
:1004A000A0E50024A0E500240B460146184600F014
:1004B0007DB9032A40F2308010F0030C00F0158063
:1004C00011F8013BBCF1020F624498BF11F801CB57
:1004D00000F8013B38BF11F8013BA2F1040298BFBC
:1004E00000F801CB38BF00F8013B11F0030300F026
:1004F0002580083AC0F0088051F8043B083A51F8CA
:1005000004CBA0E80810F5E7121D5CBF51F8043BCE
:1005100040F8043BAFF30080D20724BF11F8013B41
:1005200011F801CB48BF11F8012B24BF00F8013BA3
:1005300000F801CB48BF00F8012B704710B5203AF6
:10054000C0F00B80B1E81850A0E81850B1E818507E
:10055000A0E81850203ABFF4F5AF5FEA027C24BF50
:10056000B1E81850A0E8185044BF18C918C0BDE839
:1005700010405FEA827C24BF51F8043B40F8043B02
:1005800008BF7047D20728BF31F8023B48BF11F8B7
:10059000012B28BF20F8023B48BF00F8012B704711
:1005A00002F0FF0343EA032242EA024200F002B8EB
:1005B0004FF0000200B5134694469646203922BFFC
:1005C000A0E80C50A0E80C50B1F12001BFF4F7AF47
:1005D000090728BFA0E80C5048BF0CC05DF804EB29
:1005E000890028BF40F8042B08BF704748BF20F897
:1005F000022B11F0804F18BF00F8012B7047704795
:100600007047704708487CB57844009007487844A4
:10061000009C0546019004E020460168084480479C
:10062000241DAC42F8D17CBD98FB00009EFB00006D
:1006300070B5064600F0E6F8056806F10B0020F0FC
:100640000704B4429CBF002070BD2B466A68BAB153
:100650001068A04210D304F1080188423CBF5068E2
:10066000586007D35168101941601168091B016077
:1006700058601460101D70BD13465268002AE7D1FF
:100680002146284600F0CAF80028DED170BD70B5BA
:100690000446051F00F0B6F80068002C14BF44683B
:1006A00070BD002C18BFAC423CBF20466468F8D334
:1006B00001680A18AA4218BF456003D12A68054696
:1006C0001144016028684119A1421CBF6C6070BDD3
:1006D0006168696021680844286070BD2DE9F047B1
:1006E00091460C46804600F08DF80768604234EA77
:1006F000000001D1042C02D20520BDE8F087601E65
:1007000040F0070609F10B0020F007054D4539D9E7
:100710003B467A6882B31468101D404206EA000C1A
:10072000644525D9A4EB0C00854221D8BCF1000F0B
:100730000BD0104601686244A1EB0C0111604168C6
:100740005160C0F800C058600346116805F1080008
:10075000814205D35019491B01601560586003465A
:1007600052F8040F58600020C8F80020BDE8F08758
:1007700013465268002ACED12946384600F04EF87A
:100780000028C5D10620BDE8F0870B460146184673
:1007900000F040B910B5002000F004FCFFF74AFE5D
:1007A000BDE81040012000F025B800002DE9F0411F
:1007B000074615460E461020FFF73AFF040013D0F7
:1007C0006760C4E902650948AFF3008000F01EF8D5
:1007D0000168216006490460002008600348AFF307
:1007E00000800020BDE8F0810120FBE7100000241C
:1007F0000C00002401491820ABBEFEE726000200D1
:100800000020704700487047BC0100240048704732
:10081000EC010024704770477047704738B50446B4
:100820000A4600206946AFF30080002808BF38BDA3
:1008300002460099204600F027FC012038BD012027
:1008400001F0C1B9F8B5AFF30080054600200C46B1
:100850000C2000BF0646A819A0420DD932466946B1
:100860000020AFF30080070008BF01F0ACF900984A
:10087000A04218BF0546C419FFF7C4FF056007462C
:10088000F01D20F007004619284600F00AF8B4428F
:1008900008BFF8BDA21B31463868BDE8F84000F03B
:1008A000F3BB00210160416070470C20704770B5B8
:1008B000044685690068C10601D5302600E020267F
:1008C000C00707D070BDD4E9012130469047206AA7
:1008D000401C20626D1EF6D570BD70B5044685695A
:1008E0000078C00707D170BDD4E9012120209047CE
:1008F000206A401C20626D1EF6D570BD09684A054D
:1009000001D540B27047C905FCD500B270470968EF
:100910004A0501D5C0B27047C905FCD580B2704701
:1009200070B50C460546012A05D02878800600D50A
:10093000EA69002302E0012305E05B1C934202D236
:10094000E05C0028F9D1A869E618C01AA861286AF5
:10095000184428622846FFF7AAFF04E0D5E90121E0
:1009600014F8010B9047B442F8D32846FFF7B5FFBF
:1009700070BD00002DE9F04106460024106875297D
:10098000314616A510D0FFF7B9FF002802DA404221
:1009900013A507E031688A0701D512A502E04907CF
:1009A00004D511A5012401E0FFF7B1FF00210A22BF
:1009B00006F1240709E0B0FBF2FCB0FBF2F302FB06
:1009C0001C00303078541846491C0028F3D12346C7
:1009D0002A463046BDE8F04100F0B5BB00000000FB
:1009E0002D0000002B0000002000000011680268AC
:1009F000006A530501D508700AE0D30501D50880C7
:100A000006E0130603D5C217C1E9000200E0086042
:100A100001207047074B70B50D467B4400F07DFF09
:100A20000446284600F0B8FF10B14FF0FF3070BD0B
:100A3000204670BD3DF000002DE9FF5F15468A4657
:100A40000446DFF8AC80F8440027D8E900103E46A1
:100A5000CDE9001010E03AF816106A4602A801F03D
:100A600061F8411C07D02178890603D5E26939185D
:100A700091420DD80744761C2078800602D5E069A3
:100A8000B84205DDAE42E6DB3AF816000028E2D1B6
:100A9000A069C01BA0612046FFF709FFD8E900103C
:100AA000CDE90010002017E03AF818106A4602A8B5
:100AB00001F038F8B0F1FF3F81460BD000250DF171
:100AC000080B05E0D4E901211BF8050090476D1CD7
:100AD0004D45F7D308F10100B0428046E4DB206ABF
:100AE000384420622046FFF7F8FEBDE8FF9F000073
:100AF000AAF000002DE9F0418046D21D22F0070245
:100B00000025D2E90002F52915A614D0011E72F1C4
:100B1000000106DA0023D0EB030063EB020211A60A
:100B200008E0D8F800108B0701D50FA602E04907AE
:100B300001D50EA601251146002408F1240704E082
:100B400000F0BCFA30323A55641C50EA0102F7D189
:100B50002B46324621464046BDE8F04100F0F3BA4C
:100B6000000000002D0000002B000000200000000D
:100B700030B4002100F1240408E002F00705D20897
:100B8000303542EA4372DB086554491C52EA0305DA
:100B9000F3D10468002310A2250708D504F020042F
:100BA0000C4304D0C46901230CA2641EC46130BC90
:100BB00000F0C9BA10B5044621461068FFF7A7FE39
:100BC00002462046BDE810400023D1E7D21D22F0A6
:100BD0000701D1E90023CBE700000000300000004E
:100BE000F0B40D460188090502D5214C7C4402E091
:100BF0001F4C7C440E34002100F1240608E002F072
:100C00000F071209E75D42EA03721B097754491C7A
:100C100052EA0307F3D102780023120704D5702D9E
:100C200006D009B1022311342246F0BC00F08BBA81
:100C300001231034F8E770B504460D4621461068CC
:100C4000FFF765FE024629462046BDE870400023B6
:100C5000C6E7D21D22F00703D3E90023C0E70368EB
:100C6000126843F0200303600823C3610023B7E741
:100C70000CEF00002DE9F05F894604464FF0000AB2
:100C8000DFF874B1FB44C0F820A02046E168884733
:100C9000002874D0252806D0D4E901219047206A85
:100CA000401C2062F1E700265F462046E168884745
:100CB0002028054607DB312D05D2781910F8200CC5
:100CC00008B10643F1E7B00701D526F00406C4F8E1
:100CD0001CA00027C4F818A02A2D09D028460EF021
:100CE000B5FE38B304EB8708303DC8F8185019E05A
:100CF00059F8041B204604EB87029161E16888479C
:100D0000012F054618D1E069002820DA26F02006D8
:100D10001DE0D8F8180000EB800005EB40003038EB
:100D2000C8F818002046E168884705460EF08EFE98
:100D30000028EED1012F0AD02E2D08D12046E168DF
:100D400088477F1C0546022F46F02006C4DBA069B9
:100D5000002803DA404246F00106A061F00701D006
:100D600026F010066C2D0BD0682D09D04C2D39D0F3
:100D70006A2D35D0742D35D07A2D33D016E038E079
:100D8000E1682F4620468847B842054609D16C2FB6
:100D900026D04FF48060E168064320468847054628
:100DA00004E06C2F1AD04FF4807006430DB3A5F108
:100DB0004100192802D8203546F400664A462946E3
:100DC000204626604E46FFF7D1FA80B101280BD0AD
:100DD000F61D26F0070000F1080956E74020E4E779
:100DE0008020D8E70020D6E706F104094DE7284621
:100DF00052E7206ABDE8F09F9CEE000010B5424823
:100E00005421FFF7D5FB41485421FFF7D1FB40485F
:100E10005421FFF7CDFB3F493B483C4A3F4B08601C
:100E20003D490A603A491960531C0365481C106526
:100E3000012008653B48344A39A1784400F0D4FDCC
:100E400020B9384878440A3800F0B6FE37482F4AAF
:100E500035A1784400F0C8FD20B9344878440A38F8
:100E600000F0AAFE32482A4A2FA1784400F0BCFDC7
:100E700020B92F4878440A3800F09EFE40232248CB
:100E8000DC000021224600F08BFD20B1254878448B
:100E9000543800F091FE1D4822464023002100F006
:100EA0007FFD20B121487844543800F085FE184871
:100EB00022461023002100F073FD002806D01C48B4
:100EC0007844BDE81040563800F076BE10BD10489A
:100ED00070B5006D20F001040B4800F0FDFD0B48DB
:100EE00000F0FAFD0A4800F0F7FD09E0206D20F05F
:100EF0000105204600F0F0FD2046FFF7C8FB2C4618
:100F0000002CF3D170BD0000B80000240C010024B7
:100F100060010024000000240400002408000024D4
:100F200072000000F7EC000077000000E3EC000026
:100F3000CFEC00002DE9F84306461548AFF30080DA
:100F4000FFF764FC134F8146E8464D4616E026B194
:100F5000E068B04201D0254610E0206828600C48C7
:100F6000C7F80080AFF30080D4E901018847084842
:100F7000AFF300803968414500D04D462C68002C05
:100F8000E5D1002038600248AFF30080BDE8F88367
:100F9000100000240C0000240148FFF731BC0000C1
:100FA0001000002410B500F0EFFDBDE8104000F087
:100FB000E6BD00000000000030B44FF0013C50F8E6
:100FC000042BCCFA52F451F8043BD51A20D1FCB9C9
:100FD00050F8042BCCFA52F451F8043BD51A17D12F
:100FE000B4B950F8042BCCFA52F451F8043BD51A9A
:100FF0000ED16CB950F8042BCCFA52F451F8043BE2
:10100000D51A05D1002CDAD030BC4FF00000704763
:1010100029BAB1FA81F111F01801D1F12000844010
:10102000F2D1CA40CB4012F0FF0213F0FF0330BCF4
:10103000D01A704700487047B401002470477546C5
:10104000FFF7F8FFAE4605006946534620F007005B
:10105000854618B020B5FFF713FABDE820404FF0E1
:1010600000064FF000074FF000084FF0000BAC46B1
:10107000ACE8C009ACE8C009ACE8C009ACE8C009FC
:1010800021F007018D467047034640688C460028D2
:1010900018BF88423CBF03464068F8D3186818441C
:1010A000884207D00CF1030020F00700001D411A10
:1010B000521A0146081D0A60FFF7E9BA30B5B0F1CF
:1010C0000A0271F100034FEA900E4EEA817EB0EB06
:1010D0000E0061EB91014FEA101E4EEA017E10EB0B
:1010E0000E0041EB11114FEA102E4EEA016E10EB8B
:1010F0000E0041EB11214FEA104E4EEA014E10EB6B
:101100000E0041EB1141401841F100014FEAD000BF
:1011100040EA41704FEAD1014FEA810444EA9074F9
:1011200010EB800544EB01046D1944EB0404521BE1
:10113000A3414FF0000348BF0A3200D530BD401C28
:1011400041F1000130BD2DE9F0470D469946924628
:10115000044600F124080168880604D5E06921F0FE
:101160001001216000E00120A84201DD471B00E0E2
:101170000027A1697A1902EB0900081AA0612078FA
:10118000C00602D42046FFF792FB002608E0D4E90F
:1011900001211AF806009047206A401C761C206244
:1011A0004E45F4DB2078C0060AD52046FFF77FFBCA
:1011B00006E0D4E9012130209047206A401C2062DB
:1011C000381EA7F10107F4DC07E0D4E9012118F883
:1011D00005009047206A401C2062281EA5F10105E9
:1011E000F3DC2046FFF779FB2078000602D50220C9
:1011F000BDE8F0870120FBE72DE9FF4F0C461E46B6
:101200004FF0FF378BB0D2E90001DDF860800A9023
:101210008A46C1F30A5505B93D46002108464FF0FC
:101220000000BAF1000F00F4400005DA00EB800086
:101230004FF4400101EA50004FEA9059B9F1010F13
:1012400000DDB9460A9850EA4A000ED044F6105024
:10125000A5F2FF3545432F14B8F1000F1ED075429B
:10126000291E1EDDC9F100021CE0B8F1010F4FF08C
:10127000000001D0302103E0F24305E02154401C7E
:10128000B042FBDB30460022002121540B99C1F80B
:101290000880C1E900200FB0BDE8F08FBD1B6D1CB8
:1012A000DEE74A4600DA694206A800F013FD06AB05
:1012B00093E8070003AB83E8070050460A990DF056
:1012C000D3FF8DE80700A0F500501F380090039869
:1012D000002D0ADD42F21F014A460844002303A9FB
:1012E000039068460EF03CFA09E0A0F500504A462B
:1012F0001F38002303A9039068460EF046FA8DE8D4
:1013000007000004000C03D04FF0FF30410800E05C
:101310001046B8F1000F03D00022009215461EE0DF
:10132000751E05D4FFF7CAFE303262556D1EF9D521
:10133000B3460122084302D000227F1C04E020783B
:10134000302801D100227F1E002A099784D01DE099
:10135000112D07DAFFF7B2FE303262556D1C50EAEC
:101360000102F5D1084302D00098C8B10EE0002177
:10137000681E05E0235C625C63542254401E491CD5
:101380008142F7DBAB46A81B401E0990002004F801
:101390000B000B98099AC0F80880C0E9002B7AE787
:1013A00011264FF0000857E72DE9F04F8846044614
:1013B000D21D22F0070191B0D1E90001CDE90A0167
:1013C0000EF02CFB02460B98C00F01D02D2007E039
:1013D0002068810701D52B2002E0202101EAC0000E
:1013E000032A099001D0072A05DB0346414620461F
:1013F00000F030FC0BE12078800601D5E06900E0C8
:101400000620B8F1650F814606D0B8F1660F18D0F6
:10141000B8F1670F70D131E00020B9F1110F0090E1
:1014200001DB112301E009F101030AAA01A90CA8BB
:10143000FFF7E2FEDDE90C70002609F101058346A5
:1014400047E001204B4600904FF000470AAA01A94F
:101450000CA8FFF7D1FEDDE90DB00C995D46002622
:1014600010B909F101000D18B9EB050003D4C0F162
:10147000FF3609F10105A5EB09002BE0B9F1010FD9
:1014800001DA4FF001090020B9F1110F0090484630
:1014900001DD112300E003460AAA01A90CA8FFF709
:1014A000ABFEDDE90C704D46002683462078000730
:1014B0000AD4AB4500DA5D4601A8012D04DD4119CF
:1014C00011F8011C302907D04F4502DA17F1040F3B
:1014D00004DA012082460FE06D1EEEE7002F02DCE9
:1014E000ED1B3E4403E0781CA84200DD7D1CB81BC8
:1014F00000F1010A4FF000472078000703D4AA4505
:1015000001DB4FF0FF3A0021B7F1004F0DF1430826
:101510008DF8431024D002202B23002F01DA7F42C4
:101520002D230A21021EA0F1010000DC5FB197FB10
:10153000F1FC97FBF1F201FB1C7C17460CF1300C1F
:1015400008F801CDEEE7A8F1010003702188090534
:1015500001D5452100E06521A0F1010800F8011C3A
:1015600009980FA9A1EB0807FF1D00B1012041193F
:1015700001EBEA70A1693844081A401EA061207886
:10158000C00602D42046FFF792F9099828B1D4E9A1
:1015900001219047206A401C20622078C00622D595
:1015A0002046FFF784F91EE0002E04DBB34502DD80
:1015B00001A8805D00E03020D4E901219047206A35
:1015C000401C2062761CAAF101005FEA000A0AD1E1
:1015D00000F03CFBC0680168405CD4E90121904701
:1015E000206A401C2062281EA5F10105DCDC07E012
:1015F000D4E9012118F8010B9047206A401C2062B1
:10160000381EA7F10107F3DC2046FFF766F9032037
:1016100011B041E62DE9F04F04460D46D21D22F0EF
:10162000070089B0D0E90097484639460EF0F6F930
:101630000246F80F01D02D2307E02068810701D56D
:101640002B2302E0202101EAC0038DF820300BB1EA
:10165000012000E00020032A824601D0072A04DB93
:101660002946204600F0F6FA3FE12078800601D4B2
:101670000D2500E0E569C7F30A560D2D49DA002172
:101680004FEA175B08464FF00000002F00F44000BF
:1016900007DA00EB80004FF4400100EBD07001EA64
:1016A00060008115012901DD4FF0FF3100224FEA72
:1016B000850CBCF1180F06D31346ACF118004FF09F
:1016C0008052C24003E04FF4801323FA0CF30CF174
:1016D0000C0CBCF1200F04D3ACF1200C09FA0CF077
:1016E00001E007FA0CF000294FF0004801DD18B9BD
:1016F0000FE00ED140450CD319EB02095F4121B92F
:10170000404502D19F4329EA0209BBEB175F00D095
:10171000761C2088000502D57B48784402E07A4890
:101720007844193808AA302302F80A30037C0AF1F9
:101730000101002E0AF1020A53546A4602DC4FF0FE
:10174000300101E04FF031014FF001088DF8001039
:1017500002D0A6F2FF3603E059EA470100D06B4EF3
:10176000002D02DC2178090704D54FF002082E2154
:101770008DF80110C44600210BE0C7F303433F017D
:10178000C35C491C6D1E02F80830052908F10108E8
:1017900001DA002DF1DC00210CE000EB1973491C8B
:1017A0001B786D1E082902F808304FEA091908F164
:1017B000010801DA002DF0DC21688B0602D516E065
:1017C000A8F10108E04505DD02EB080313F8013C30
:1017D000302BF5D0B8F1000F09DD02EB080313F848
:1017E000013C2E2B03D1090701D4A8F10108002DDB
:1017F00005DD3E2102F808106D1E08F10108407C4D
:10180000002E02F8080008F1010804DA2D207642C3
:1018100002F8080002E02B2002F808000A214FF429
:101820007A70864208F101080BDB96FBF0F3303347
:1018300002F8083096FBF0F308F1010800FB13668C
:1018400001E0642E0CDB642096FBF0F3303302F8E9
:10185000083096FBF0F308F1010800FB136601E085
:101860000A2E06DB96FBF1F0303002F8080008F192
:10187000010896FBF1F001FB1060303002F808001F
:10188000A16908F1010808EB050202EB0A00081A39
:10189000A0612078C00602D42046FFF708F8216A2C
:1018A00008AE01EB0A00206204E0D4E9012116F839
:1018B000010B9047BAF1010AF7D22078C00602D591
:1018C0002046FEF7F4FF6E4609E016F8010B3E28AD
:1018D0000FD0D4E901219047206A401C2062B8F162
:1018E0000108F2D22046FEF7F8FF09B00320BDE858
:1018F000F08F206A2844206203E0D4E901213020DF
:1019000090476D1EEBD3F8E736E4000002FCFFFFC2
:1019100001694A1C02610878704700B58FB0CDE9B3
:1019200001310021059105497944CDE903101146A3
:101930006846FFF79FF90FB000BD0000E5FFFFFF0D
:1019400010B5436913B1AFF3008001E0FEF7E8FF83
:10195000012010BD127800F124010A7000224A70A3
:101960000122EDE711684FF0FF32E9E710B5436956
:1019700013B1AFF3008001E0FFF75EF8012010BD66
:10198000128800F1240182840022C2840122EDE742
:1019900011684FF0FF32E9E7007B00F080007047EC
:1019A00070B5C468A50713D0650211D4B2F5807F65
:1019B00009D0B2F5007F06D0B2F5806F08D10123BF
:1019C00000F1240106E05D1E6FF07F46B54201D3B1
:1019D000012070BD0161C361416024F47061114355
:1019E000C160002070BD00002DE9F0410C46164694
:1019F000070047D0104600F06FF82078611C61287E
:101A00000AD0722802D077283CD102E001250024B8
:101A100005E00225042402E0082448F2020511F83A
:101A2000010B2B2806D0622809D011F8010C74286C
:101A30000AD00BE045F0030544F00204EFE745F05F
:101A4000040544F00104EAE744F010043846214656
:101A500000F0C0F8411C15D00021316171604FF4D5
:101A60000071F560F1617061200704D530460222F3
:101A7000002100F093FA306D40F0010030653046EF
:101A8000BDE8F0810020FBE72DE9F0410D46064658
:101A9000104C206DC10704D0410804D020F001048F
:101AA000F7E722460EE05420FEF7C2FD07000ED0F5
:101AB000206D47F001010843542120653846FEF7A8
:101AC00077FD3A4629463046BDE8F0418CE70020D4
:101AD000D6E70000B80000242DE9F04704464FF097
:101AE000FF380026C568D4E90497A80718D0204617
:101AF00000F010FB384600F077F8002800DA464680
:101B0000280502D54846FEF7C2FD4C212046FEF7C7
:101B10004FFD206D20F0010020653046BDE8F087C4
:101B20004046FBE72DE9F04116460C46054600F01D
:101B300085F8036893F80101012807D0FF2C12D81B
:101B4000185D80B101202C70BDE8F081D3F8070149
:101B50003246214603F20713C7182846BC46BDE8A3
:101B6000F041002360474FF0FF30EDE710B5044629
:101B7000AFF300802046BDE81040FEF76BBC0028A4
:101B800001D0FEF737BE704710B5002102A000F06B
:101B900005FB012010BD0000534947414252543A11
:101BA0002041626E6F726D616C207465726D696E3A
:101BB0006174696F6E00000010B500F009FBBDE8AC
:101BC0001040FFF7DCBF10B500F01CFBBDE8104073
:101BD000FFF7D5BF0EB5CDE9000100F063FB029021
:101BE00069460120ABBE0EBD08B5694600900220D3
:101BF000ABBE08BD1FB58DE8070069460520ABBE2A
:101C000004B010BD1FB58DE80F0069460620ABBEBD
:101C1000F6E708B5694600900920ABBE08BD1CB5C3
:101C2000CDE9000169460A20ABBE1CBD704708B56E
:101C3000694600900C20ABBE08BD000010B500F056
:101C400005F8001D10BD00BF5DDE000000487047B4
:101C5000D40100242DE9F0411F4604460326016803
:101C6000072A01F4006004DB08B116A505E016A5FB
:101C700003E008B115A500E015A521F010002060D3
:101C8000A069C01EA0610FB1401EA0612046FEF7F2
:101C90000EFE4FB1D4E9012138469047206A401C1E
:101CA0002062C01C206206E0206AFAE7D4E9012124
:101CB00015F8010B9047761EF8D22046FEF70DFE70
:101CC000BDE8F0814E414E006E616E00494E460007
:101CD000696E66002DE9F047814616468AB03548A0
:101CE00078440DC88DE80D0032487844801C03AC60
:101CF0000DC884E80D0041F69B300844372190FB65
:101D0000F1F290FBF1F5A5F1800501FB12041B3CFB
:101D100002D56442012000E00020DFF898A0804650
:101D20000027FA44AAF1BE0A0EE0E0070AD03246C4
:101D3000684607EB470101230AEB81010DF025FD01
:101D40008DE8070064107F1C002CEED1194F7F44F2
:101D5000AE3F19E0E80715D007EB04100DF1180AA3
:101D600090E80E008AE80E00C068F04201D1981990
:101D700008903246012306A903A80DF006FD03AB27
:101D800083E807006D10641C002DE3D14FF00103C0
:101D900032466946B8F1000F03A802D00DF0E0FC0E
:101DA00001E00DF0F2FCC9E90001C9F808200AB011
:101DB000BDE8F08700DF00002DE9F05F054617461B
:101DC0000C46C86820F4201040F48000C8608006EB
:101DD00002D5084600F0C1F9E06841F282014FF0F7
:101DE000FF3A0140022903D0204600F053F9B9E040
:101DF00000F42041B1F5004F0FD1C00306D5616852
:101E0000E06A884200D80846606006E02069E06227
:101E100060606069FFF70BFFA061A0680022EEB26E
:101E200000280DDAE1688B050AD4C043A06041F4B4
:101E300090302260E0606068411C61600670AAE03A
:101E4000E0689146226040F40050E060206978BB71
:101E50006069FFF7DEFE04F124054FF00108A8B128
:101E6000A08910F4407F08D0E069FEF7E1FB206113
:101E700018B1E06840F4006017E0C4F81C802561E8
:101E8000E06820F4407040F480600EE0E069FEF706
:101E9000CFFB00282061F0D0E06840F4006010F42F
:101EA000407FE06002D140F48070E06020696060B3
:101EB000E06825696FF0010BC1051ED56168E06A15
:101EC000884200D80846411B04D02246284600F02C
:101ED000EBF8E8BB1FB1E562C4E9015959E0681CA1
:101EE000E0626060E069401EA060E06840F480301D
:101EF000E06030462E70BDE8F09F17B100F48032EC
:101F00000AE06068411C61600670E0680A2E40F4D7
:101F10008030E06006D00022E16A6068814203D927
:101F20000B4602E00122F7E70346B4F80CC05B1B46
:101F30005FEA4C5C04D4D4F81CC09C4500DD02B3BD
:101F4000814200D80146002BA1EB0008E56200E0C9
:101F500008E0C4E9015907DD22461946284600F089
:101F6000A3F808B15046C6E7B8F1000F09D0A1693F
:101F7000E5626560A1EB0800A061E06840F0100038
:101F8000E06047B16168A069E562491B084465608B
:101F9000A0615846AFE73046ADE700002DE9F041BB
:101FA000044616460D464769007B80072ED038460A
:101FB000FFF72FFE50BB3EB3012E02D0022E25D1DB
:101FC00004E0204600F04DF905441DE03846FFF7D7
:101FD0002EFEE168002841F01001E16005DA20469C
:101FE00000F058F80120BDE8F081C9030BD5626804
:101FF000E16A914200D81146A26911442269891A06
:10200000814200DD08460544002D01DA0220EAE79E
:10201000E16A6068E268814206D29103E06203D51A
:1020200022F4003141F01002A6690027AE4213DC11
:10203000E16A814201D90B4600E0034603EB060C3E
:102040002369ACEB030CAC4506DD814201D98C461B
:1020500000E084469C4505D1A760276042F020003F
:10206000A5620DE0AD1BE669AE1B8142A66000D9FA
:102070000846C01A281A20605819606022F0200013
:1020800003490840E060002084F84870ABE7000096
:10209000BFCFD7FFC16821F4001141F08001C160BA
:1020A00000218160016070472DE9F74F15460C460D
:1020B0004FF0FF3B3848D768D2F814A0074209D048
:1020C0005046A969FFF7ABFD002819DB3248C04331
:1020D0000740EF604FF000496FF000484C4501D3D6
:1020E000464600E0264600993B4650463246FFF7FA
:1020F00081FDA96920F00042B21A1144A96128B1FA
:102100002846FFF7C7FF5846BDE8FE8FA41BE5D160
:102110000020F9E770B504460569C06A6168884225
:1021200000D80846E16821F42011E160C90312D506
:10213000A84208D02246411B2846FFF7B5FF10B140
:102140004FF0FF3070BD0020E562C4E90150E06847
:1021500020F48030E060002070BD10B50446C068F7
:1021600020F02000E060A16AA06988420DD02046DE
:10217000FFF7D0FFE06820F4405040F01000E0602E
:10218000A06AA0612069E062606044F24001E068FA
:102190008843E06010BD00001000020070B50546E5
:1021A0000C460A2000E06D1C00F054F835B1287888
:1021B0000028F8D102E0641C00F04CF814B120783B
:1021C0000028F8D1BDE870400A2000F043B80000B4
:1021D00010B5014602A0FFF7E1FF012010BD00008D
:1021E00053494752545245443A20526564697265D6
:1021F00063743A2063616E2774206F70656E3A20B5
:102200000000000010B5012805D0002103A0FFF751
:10221000C5FF012010BD09A1F8E70000534947524E
:10222000544D454D3A204F7574206F6620686561A6
:1022300070206D656D6F7279000000003A2048656E
:102240006170206D656D6F727920636F7272757049
:102250007465640008B569468DF800000320ABBEC4
:1022600008BD10B50146C268900703D0900607D597
:10227000886A0AE000F036F801210160881E10BD6E
:102280008B69486818440B69C01A91F848301BB133
:1022900091F84910401A10BD1103FCD50028FADD51
:1022A000401E10BD10B5431C02E010F8011B71B1B7
:1022B0008107FAD14FF0013202C88C1A8C4314EA1C
:1022C000C211F9D0C01A0A0603D0C01E10BDC01A30
:1022D00010BD0A0401D0801E10BD0902FCD0401EB2
:1022E00010BD000000487047B40100240000000049
:1022F00080B506F0B1FA80BDFFE7FEE70000000000
:1023000089B008900791069205930898806D049013
:102310000898806D03900898016801201022C4F28B
:1023200002029142029000F00381FFE708980168E1
:1023300001202822C4F202029142029000F0F880AB
:10234000FFE70898016801204022C4F2020291428E
:10235000029000F0ED80FFE7089801680120582204
:10236000C4F202029142029000F0E280FFE7089876
:10237000016801207022C4F202029142029000F032
:10238000D780FFE70898016801208822C4F2020282
:102390009142029000F0CC80FFE70898016801208C
:1023A000A022C4F202029142029000F0C180FFE735
:1023B000089801680120B822C4F2020291420290FA
:1023C00000F0B680FFE708980168012040F2104253
:1023D000C4F202029142029000F0AA80FFE708983E
:1023E0000168012040F22842C4F2020291420290A8
:1023F00000F09E80FFE708980168012040F240420B
:10240000C4F202029142029000F09280FFE7089825
:102410000168012040F25842C4F202029142029047
:1024200000F08680FFE708980168012040F27042C2
:10243000C4F20202914202907AD0FFE70898016844
:10244000012040F28842C4F20202914202906FD011
:10245000FFE708980168012040F2A042C4F202029E
:102460009142029064D0FFE708980168012040F291
:10247000B842C4F202029142029059D0FFE7089894
:102480000168012045F20842C5F60202914202901D
:102490004ED0FFE708980168012045F21C42C5F6BE
:1024A00002029142029043D0FFE7089801680120A0
:1024B00045F23042C5F602029142029038D0FFE761
:1024C00008980168012045F24442C5F60202914293
:1024D00002902DD0FFE708980168012045F258428C
:1024E000C5F602029142029022D0FFE708980168E7
:1024F000012045F26C42C5F602029142029017D0CB
:10250000FFE708980168012045F28042C5F6020203
:10251000914202900CD0FFE7089800684AF66C31AF
:10252000CAF2FD710844B0FA80F040090290FFE75A
:102530000298C00770B1FFE70898416E806E48604E
:102540000898C06E28B1FFE70898016F406F486097
:10255000FFE7FFE70898016801201022C4F2020299
:102560009142019000F0A380FFE7089801680120E4
:102570002822C4F202029142019000F09880FFE705
:102580000898016801204022C4F2020291420190A1
:1025900000F08D80FFE70898016801205822C4F2FE
:1025A00002029142019000F08280FFE708980168E2
:1025B00001207022C4F202029142019077D0FFE71D
:1025C0000898016801208822C4F202029142019019
:1025D0006DD0FFE7089801680120A022C4F2020232
:1025E0009142019063D0FFE7089801680120B8226A
:1025F000C4F202029142019059D0FFE708980168A5
:10260000012040F21042C4F20202914201904ED0E9
:10261000FFE708980168012040F22842C4F2020254
:102620009142019043D0FFE708980168012040F2F1
:102630004042C4F202029142019038D0FFE708986C
:102640000168012040F25842C4F202029142019016
:102650002DD0FFE708980168012040F27042C4F2D3
:1026600002029142019022D0FFE708980168012000
:1026700040F28842C4F202029142019017D0FFE773
:1026800008980168012040F2A042C4F2020291427F
:1026900001900CD0FFE7089800684FF64831CBF660
:1026A000FD710844B0FA80F040090190FFE70198FD
:1026B000C00750B3FFE70898C06D00F01F013F202E
:1026C00088400499886008980168086820F4802090
:1026D000086005980899096848600898806840284B
:1026E00009D1FFE706980899096888600798089952
:1026F0000968C86008E00798089909688860069822
:1027000008990968C860FFE782E00898016801201D
:1027100045F20842C5F60202914200904ED0FFE712
:1027200008980168012045F21C42C5F60202914258
:10273000009043D0FFE708980168012045F230423D
:10274000C5F602029142009038D0FFE70898016870
:10275000012045F24442C5F60202914200902DD07C
:10276000FFE708980168012045F25842C5F60202C9
:102770009142009022D0FFE708980168012045F2BD
:102780006C42C5F602029142009017D0FFE708980C
:102790000168012045F28042C5F602029142009094
:1027A0000CD0FFE7089800684AF66C31CAF2FD7158
:1027B0000844B0FA80F040090090FFE70098C00795
:1027C00020B3FFE70898C06D00F01F01012088408A
:1027D00003994860059808990968486008988068D6
:1027E000402809D1FFE7069808990968886007988A
:1027F00008990968C86008E007980899096888601E
:10280000069808990968C860FFE700E0FFE7FFE75E
:1028100009B0704700000000704700000000000091
:1028200081B0EFF3108072B60090FFE7FEE7000082
:1028300044F60C01C5F60201086840F00200086089
:10284000FFE744F60400C5F6020000688004002893
:1028500001D4FFE7F5E7704780B58AB0089001F032
:102860002FFA0490089828B9FFE701208DF8270077
:1028700000F0AABC089890F8350002280ED0FFE7B7
:10288000089980204865FFE70899002081F8340006
:10289000FFE701208DF8270000F096BC089801683A
:1028A00001201022C4F202029142039000F0A380A2
:1028B000FFE70898016801202822C4F20202914231
:1028C000039000F09880FFE70898016801204022FB
:1028D000C4F202029142039000F08D80FFE7089855
:1028E000016801205822C4F202029142039000F0D4
:1028F0008280FFE70898016801207022C4F202027A
:102900009142039077D0FFE7089801680120882260
:10291000C4F20202914203906DD0FFE7089801686B
:102920000120A022C4F202029142039063D0FFE78B
:10293000089801680120B822C4F202029142039073
:1029400059D0FFE708980168012040F21042C4F214
:102950000202914203904ED0FFE7089801680120DF
:1029600040F22842C4F202029142039043D0FFE7B2
:1029700008980168012040F24042C4F202029142EC
:10298000039038D0FFE708980168012040F25842D0
:10299000C4F20202914203902DD0FFE7089801682B
:1029A000012040F27042C4F202029142039022D010
:1029B000FFE708980168012040F28842C4F2020251
:1029C0009142039017D0FFE708980168012040F278
:1029D000A042C4F20202914203900CD0FFE7089893
:1029E00000684FF64831CBF6FD710844B0FA80F02C
:1029F00040090390FFE70398C00780B1FFE70898FC
:102A00000168086820F01E0008600898016848699D
:102A100020F08000486108980068059009E0089857
:102A20000168086820F00E000860089800680590AA
:102A3000FFE70898016801201022C4F202029142C7
:102A4000029000F00381FFE7089801680120282226
:102A5000C4F202029142029000F0F880FFE7089869
:102A6000016801204022C4F202029142029000F06B
:102A7000ED80FFE70898016801205822C4F20202A5
:102A80009142029000F0E280FFE70898016801207F
:102A90007022C4F202029142029000F0D780FFE758
:102AA0000898016801208822C4F202029142029033
:102AB00000F0CC80FFE7089801680120A022C4F252
:102AC00002029142029000F0C180FFE7089801687D
:102AD0000120B822C4F202029142029000F0B680B6
:102AE000FFE708980168012040F21042C4F2020298
:102AF0009142029000F0AA80FFE708980168012047
:102B000040F22842C4F202029142029000F09E80FC
:102B1000FFE708980168012040F24042C4F2020237
:102B20009142029000F09280FFE70898016801202E
:102B300040F25842C4F202029142029000F08680B4
:102B4000FFE708980168012040F27042C4F20202D7
:102B5000914202907AD0FFE708980168012040F284
:102B60008842C4F20202914202906FD0FFE70898B7
:102B70000168012040F2A042C4F202029142029098
:102B800064D0FFE708980168012040F2B842C4F21F
:102B900002029142029059D0FFE708980168012093
:102BA00045F20842C5F60202914202904ED0FFE77C
:102BB00008980168012045F21C42C5F602029142C4
:102BC000029043D0FFE708980168012045F23042A7
:102BD000C5F602029142029038D0FFE708980168DA
:102BE000012045F24442C5F60202914202902DD0E6
:102BF000FFE708980168012045F25842C5F6020235
:102C00009142029022D0FFE708980168012045F226
:102C10006C42C5F602029142029017D0FFE7089875
:102C20000168012045F28042C5F6020291420290FD
:102C30000CD0FFE7089800684AF66C31CAF2FD71C3
:102C40000844B0FA80F040090290FFE70298C007FC
:102C500038B1FFE70898016E086820F480700860BA
:102C6000FFE7089800681021C4F20201884200F0D2
:102C70008180FFE7089800682821C4F20201884299
:102C800078D0FFE7089800684021C4F2020188422A
:102C900070D0FFE7089800685821C4F2020188420A
:102CA00068D0FFE7089800687021C4F202018842EA
:102CB00060D0FFE7089800688821C4F202018842CA
:102CC00058D0FFE708980068A021C4F202018842AA
:102CD00050D0FFE708980068B821C4F2020188428A
:102CE00048D0FFE70898006840F21041C4F20201A2
:102CF00088423FD0FFE70898006840F22841C4F2BC
:102D00000201884236D0FFE70898006840F240414F
:102D1000C4F2020188422DD0FFE70898006840F213
:102D20005841C4F20201884224D0FFE708980068A5
:102D300040F27041C4F2020188421BD0FFE70898BC
:102D4000006840F28841C4F20201884212D0FFE7D5
:102D50000898006840F2A041C4F20201884209D0FC
:102D6000FFE70898006840F2B841C4F202018842C7
:102D700007D1FFE708980168086820F001000860A3
:102D800006E008980168086820F001000860FFE785
:102D9000FFE705980068C007C8B1FFE700F090FFA3
:102DA0000499401A062811D3FFE7089920204865A6
:102DB0000899032081F83500FFE70899002081F881
:102DC0003400FFE701208DF82700FDE1E1E70898D6
:102DD000016801201022C4F202029142019000F029
:102DE000A380FFE70898016801202822C4F20202AC
:102DF0009142019000F09880FFE708980168012057
:102E00004022C4F202029142019000F08D80FFE75F
:102E10000898016801205822C4F2020291420190F0
:102E200000F08280FFE70898016801207022C4F258
:102E300002029142019077D0FFE7089801680120D3
:102E40008822C4F20202914201906DD0FFE70898F7
:102E500001680120A022C4F202029142019063D0D5
:102E6000FFE7089801680120B822C4F202029142EB
:102E7000019059D0FFE708980168012040F2104204
:102E8000C4F20202914201904ED0FFE70898016817
:102E9000012040F22842C4F202029142019043D044
:102EA000FFE708980168012040F24042C4F20202A4
:102EB0009142019038D0FFE708980168012040F264
:102EC0005842C4F20202914201902DD0FFE70898C7
:102ED0000168012040F27042C4F202029142019066
:102EE00022D0FFE708980168012040F28842C4F22E
:102EF00002029142019017D0FFE708980168012073
:102F000040F2A042C4F20202914201900CD0FFE7CD
:102F1000089800684FF64831CBF6FD710844B0FAC6
:102F200080F040090190FFE70198C00760B1FFE71A
:102F30000898806D07900898C06D00F01F013F2031
:102F40008840079988600BE00898806D0690089883
:102F5000C06D00F01F010120884006994860FFE71E
:102F60000898016801201022C4F2020291420090E8
:102F700000F00381FFE70898016801202822C4F2CD
:102F800002029142009000F0F880FFE70898016883
:102F900001204022C4F202029142009000F0ED8034
:102FA000FFE70898016801205822C4F2020291420A
:102FB000009000F0E280FFE708980168012070228D
:102FC000C4F202029142009000F0D780FFE7089817
:102FD000016801208822C4F202029142009000F0B0
:102FE000CC80FFE7089801680120A022C4F2020209
:102FF0009142009000F0C180FFE70898016801202D
:10300000B822C4F202029142009000F0B680FFE7BD
:1030100008980168012040F21042C4F20202914275
:10302000009000F0AA80FFE708980168012040F2B4
:103030002842C4F202029142009000F09E80FFE715
:1030400008980168012040F24042C4F20202914215
:10305000009000F09280FFE708980168012040F29C
:103060005842C4F202029142009000F08680FFE7CD
:1030700008980168012040F27042C4F202029142B5
:1030800000907AD0FFE708980168012040F288425A
:10309000C4F20202914200906FD0FFE708980168E5
:1030A000012040F2A042C4F202029142009064D09A
:1030B000FFE708980168012040F2B842C4F202021A
:1030C0009142009059D0FFE708980168012045F22D
:1030D0000842C5F60202914200904ED0FFE70898E0
:1030E0000168012045F21C42C5F60202914200909F
:1030F00043D0FFE708980168012045F23042C5F649
:1031000002029142009038D0FFE708980168012040
:1031100045F24442C5F60202914200902DD0FFE7ED
:1031200008980168012045F25842C5F60202914212
:10313000009022D0FFE708980168012045F26C4218
:10314000C5F602029142009017D0FFE70898016887
:10315000012045F28042C5F60202914200900CD057
:10316000FFE7089800684AF66C31CAF2FD7108441E
:10317000B0FA80F040090090FFE70098C007A0B1C6
:10318000FFE70898416E806E48600898C06E58B19D
:10319000FFE70898C16E086820F4807008600898FE
:1031A000016F406F4860FFE7FFE70899012081F851
:1031B0003500FFE70899002081F83400FFE7FFE7BA
:1031C00000208DF82700FFE79DF827000AB080BD9A
:1031D00081B000900098406D01B070470000000081
:1031E00080B588B0069005910492039300208DF875
:1031F0000B00069820B9FFE701208DF81F006CE353
:10320000FFE7069890F83400012804D1FFE7022078
:103210008DF81F0061E30699012081F83400FFE773
:10322000FFE7069890F83500012840F04383FFE758
:103230000699022081F83500069900204865069815
:1032400000681021C4F20201884200F08180FFE78B
:10325000069800682821C4F20201884278D0FFE76E
:10326000069800684021C4F20201884270D0FFE74E
:10327000069800685821C4F20201884268D0FFE72E
:10328000069800687021C4F20201884260D0FFE70E
:10329000069800688821C4F20201884258D0FFE7EE
:1032A00006980068A021C4F20201884250D0FFE7CE
:1032B00006980068B821C4F20201884248D0FFE7AE
:1032C0000698006840F21041C4F2020188423FD0E3
:1032D000FFE70698006840F22841C4F202018842E4
:1032E00036D0FFE70698006840F24041C4F2020180
:1032F00088422DD0FFE70698006840F25841C4F29A
:103300000201884224D0FFE70698006840F270412D
:10331000C4F2020188421BD0FFE70698006840F221
:103320008841C4F20201884212D0FFE70698006883
:1033300040F2A041C4F20201884209D0FFE706989A
:10334000006840F2B841C4F20201884207D1FFE7A9
:1033500006980168086820F00100086006E00698F9
:103360000168086820F001000860FFE706980599E9
:10337000049A039BFEF7C4FF0698016801201022FF
:10338000C4F202029142019000F0A380FFE7069888
:10339000016801202822C4F202029142019000F04B
:1033A0009880FFE70698016801204022C4F20202DB
:1033B0009142019000F08D80FFE70698016801209E
:1033C0005822C4F202029142019000F08280FFE78D
:1033D0000698016801207022C4F202029142019015
:1033E00077D0FFE70698016801208822C4F2020224
:1033F000914201906DD0FFE7069801680120A0225C
:10340000C4F202029142019063D0FFE7069801687E
:103410000120B822C4F202029142019059D0FFE784
:1034200006980168012040F21042C4F20202914263
:1034300001904ED0FFE706980168012040F2284233
:10344000C4F202029142019043D0FFE7069801685E
:10345000012040F24042C4F202029142019038D071
:10346000FFE706980168012040F25842C4F20202C8
:10347000914201902DD0FFE706980168012040F2AB
:103480007042C4F202029142019022D0FFE70698F6
:103490000168012040F28842C4F202029142019088
:1034A00017D0FFE706980168012040F2A042C4F25D
:1034B0000202914201900CD0FFE7069800684FF697
:1034C0004831CBF6FD710844B0FA80F04009019014
:1034D000FFE70198C007A8B1FFE7069800680068F9
:1034E0000B2161F344000699096808600698006C96
:1034F00038B1FFE706980168086840F008000860E6
:10350000FFE714E0069800680068052161F34300B6
:103510000699096808600698006C38B1FFE70698BC
:103520000168086840F004000860FFE7FFE70698BC
:10353000016801201022C4F202029142009000F0C2
:103540000381FFE70698016801202822C4F20202E5
:103550009142009000F0F880FFE706980168012092
:103560004022C4F202029142009000F0ED80FFE799
:103570000698016801205822C4F20202914200908C
:1035800000F0E280FFE70698016801207022C4F293
:1035900002029142009000F0D780FFE70698016890
:1035A00001208822C4F202029142009000F0CC80F7
:1035B000FFE7069801680120A022C4F202029142AE
:1035C000009000F0C180FFE7069801680120B82252
:1035D000C4F202029142009000F0B680FFE7069824
:1035E0000168012040F21042C4F2020291420090B0
:1035F00000F0AA80FFE706980168012040F2284207
:10360000C4F202029142009000F09E80FFE706980B
:103610000168012040F24042C4F20202914200904F
:1036200000F09280FFE706980168012040F25842BE
:10363000C4F202029142009000F08680FFE70698F3
:103640000168012040F27042C4F2020291420090EF
:103650007AD0FFE706980168012040F28842C4F260
:103660000202914200906FD0FFE7069801680120A6
:1036700040F2A042C4F202029142009064D0FFE7FF
:1036800006980168012040F2B842C4F20202914259
:10369000009059D0FFE706980168012045F20842E2
:1036A000C5F60202914200904ED0FFE706980168ED
:1036B000012045F21C42C5F602029142009043D01F
:1036C000FFE706980168012045F23042C5F6020284
:1036D0009142009038D0FFE706980168012045F23A
:1036E0004442C5F60202914200902DD0FFE70698B1
:1036F0000168012045F25842C5F60202914200904D
:1037000022D0FFE706980168012045F26C42C5F619
:1037100002029142009017D0FFE70698016801204D
:1037200045F28042C5F60202914200900CD0FFE7BC
:10373000069800684AF66C31CAF2FD710844B0FA86
:1037400080F040090090FFE70098C007D0B1FFE784
:103750000698006E0068C003002807D5FFE70698AA
:10376000016E086840F480700860FFE70698C06E3C
:1037700038B1FFE70698C16E086840F480700860B1
:10378000FFE7FFE7069800681021C4F202018842B3
:1037900000F08180FFE7069800682821C4F202014A
:1037A000884278D0FFE7069800684021C4F2020101
:1037B000884270D0FFE7069800685821C4F20201E1
:1037C000884268D0FFE7069800687021C4F20201C1
:1037D000884260D0FFE7069800688821C4F20201A1
:1037E000884258D0FFE706980068A021C4F2020181
:1037F000884250D0FFE706980068B821C4F2020161
:10380000884248D0FFE70698006840F21041C4F2B1
:10381000020188423FD0FFE70698006840F2284145
:10382000C4F20201884236D0FFE70698006840F2F1
:103830004041C4F2020188422DD0FFE7069800689B
:1038400040F25841C4F20201884224D0FFE70698B2
:10385000006840F27041C4F2020188421BD0FFE7C9
:103860000698006840F28841C4F20201884212D0F2
:10387000FFE70698006840F2A041C4F202018842C6
:1038800009D0FFE70698006840F2B841C4F202018F
:10389000884207D1FFE706980168086840F00100F8
:1038A000086006E006980168086840F001000860BA
:1038B000FFE70DE006994FF400604865FFE70699C1
:1038C000002081F83400FFE701208DF80B00FFE7AE
:1038D0009DF80B008DF81F00FFE79DF81F0008B052
:1038E00080BD0000000000008FB00E900D91002000
:1038F0000C908020C5F600000990FFE70D98006845
:103900000C99C840002800F0C181FFE70D980068BD
:103910000C9A0121914008400B900B98002800F070
:10392000B181FFE70D98406800F00300012807D03F
:10393000FFE70D98406800F0030002282FD1FFE751
:103940000E9880680A900C984100032000FA01F15B
:103950000A9888430A900D98C0680C99490000FAAB
:1039600001F10A9808430A900A980E9988600E9807
:1039700040680A900C99012000FA01F10A988843E6
:103980000A900D984068C0F300100C9900FA01F1FC
:103990000A9808430A900A980E994860FFE70D9824
:1039A000406800F00300032818D0FFE70E98C068B5
:1039B0000A900C984100032000FA01F10A9888430C
:1039C0000A900D9880680C99490000FA01F10A9854
:1039D00008430A900A980E99C860FFE70D9840685E
:1039E00000F00300022826D1FFE70E980C996FF033
:1039F000030202EA51010844006A0A900C9800F0A0
:103A0000070081000F2000FA01F10A9888430A900C
:103A10000D9800690C9901F00701890000FA01F185
:103A20000A9808430A900A980E990C9B02EA5302DE
:103A300011440862FFE70E9800680A900C98410054
:103A4000032000FA01F10A9888430A900D98406813
:103A500000F003000C99490000FA01F10A980843AC
:103A60000A900A980E9908600D98807980070028BE
:103A700000F00781FFE7FFE744F2F440C5F60200DB
:103A8000016841F002010160006800F00200089046
:103A90000898FFE70C9820F0030040F20841C5F6B3
:103AA000000140580A900C9800F0030081000F209C
:103AB00000FA01F10A9888430A900E980021C5F691
:103AC0000201884203D1FFE7002007906CE00E98C6
:103AD00040F20041C5F60201884203D1FFE7012010
:103AE00006905EE00E9840F60001C5F6020188429D
:103AF00003D1FFE70220059050E00E9840F6004108
:103B0000C5F60201884203D1FFE70320049042E09A
:103B10000E9841F20001C5F60201884203D1FFE789
:103B20000420039034E00E9841F20041C5F60201F2
:103B3000884203D1FFE70520029026E00E9841F667
:103B40000001C5F60201884203D1FFE7062001907B
:103B500018E00E9841F60041C5F60201884203D1F3
:103B6000FFE7072000900AE00E9942F20042C5F6F6
:103B700002020A20914208BF09200090FFE7009846
:103B80000190FFE701980290FFE702980390FFE79A
:103B900003980490FFE704980590FFE705980690C6
:103BA000FFE706980790FFE707980C9901F00301DB
:103BB000890000FA01F10A9808430A900A980C99C2
:103BC00021F0030140F20842C5F6000288504FF090
:103BD000B04000680A900B990A9888430A900D98A3
:103BE0008079C006002805D5FFE70B990A9808439D
:103BF0000A90FFE70A984FF0B04108600420C5F62C
:103C0000000000680A900B990A9888430A900D9862
:103C100080798006002805D5FFE70B990A980843AC
:103C20000A90FFE70A980421C5F600010860099888
:103C300040680A900B990A9888430A900D988079F9
:103C40008007002805D5FFE70B990A9808430A90DA
:103C5000FFE70A9809994860099800680A900B994B
:103C60000A9888430A900D988079C00728B1FFE729
:103C70000B990A9808430A90FFE70A980999086087
:103C8000FFE7FFE70C9801300C9037E60FB0704764
:103C900082B00190ADF802108DF801209DF801006E
:103CA00028B1FFE7BDF802000199886105E0BDF881
:103CB0000200000401998861FFE702B0704700002C
:103CC0004DF68430C2F200400068704700000000EA
:103CD00040F22800C2F2004002784DF68431C2F270
:103CE00000410868104408607047000000000000B0
:103CF00080B582B0032000F04BF901F06DFC44F276
:103D00001842C5F602021168C1F303234FF6FC31D5
:103D1000C0F60001CB5C03F01F03D8400090009870
:103D2000126802F00F02895C01F01F01C84040F2E6
:103D30001801C2F200410860009840F21401C2F27A
:103D4000004108600F2000F013F820B1FFE70120C8
:103D50008DF8070005E000F0DBF800208DF8070083
:103D6000FFE79DF8070002B080BD000000000000E2
:103D700080B590B00E900E980F2810D8FFE70E99DE
:103D800075200190002200F0EBF8019800F0DCF8BB
:103D90000E9840F22C01C2F20041086003E00120BD
:103DA0008DF83F0044E0FFE744F2F040C5F6020022
:103DB000016841F400310160006800F400300290B5
:103DC0000298FFE706A803A901F082FB01F0F0FBCF
:103DD0004000059005984DF68361C4F21B31A0FBAD
:103DE00001014FF0FF3000EB9140049041F2785018
:103DF000C2F2004044F20041C4F20101016040F20D
:103E0000E731C1600499416000210161816003F0E4
:103E1000BBF848B9FFE741F27850C2F2004003F026
:103E2000B7F98DF83F0003E001208DF83F00FFE770
:103E30009DF83F0010B080BD10B581B00090009893
:103E400040784EF69851CEF2000108604EF6A0512F
:103E5000CEF20001086820F0010008600098406878
:103E60004EF69C52CEF200021060DDF800E09EF8A3
:103E70000C0000079EF80B2040EA02609EF800202C
:103E80009EF808309EF809C09EF80A4040EAC440F7
:103E90009EF80D4040EA84409EF80E4040EA4440BF
:103EA0009EF80FE040EA0E4040EA0C2040EA430052
:103EB0001043086001B010BDBFF35F8F4EF6245170
:103EC000CEF20001086820F4803008604EF694516C
:103ED000CEF20001002008607047000000000000E2
:103EE00081B00090009840F001004EF69451CEF25F
:103EF000000108604EF62451CEF20001086840F43B
:103F000080300860BFF34F8FBFF36F8F01B07047F1
:103F100080B582B0FFE744F2F440C5F602000168C4
:103F200041F002010160006800F002000190019878
:103F3000FFE76FF001000F21002200F011F802B03E
:103F400080BD00000000000080B582B0ADF8060022
:103F5000BDF9060007F06CFA02B080BD0000000059
:103F600080B586B0ADF816000491039207F078FA98
:103F70000290BDF91600019002980499039A03F08B
:103F800013FD0146019807F073FA06B080BD0000EA
:103F900080B582B00190019807F0B2FA02B080BDFE
:103FA00080B584B0029044F60C00C5F602000068AB
:103FB00000F004010020B0EB910F13D1FFE744F6AD
:103FC0000C00C5F60200006800F007000299884264
:103FD00004D0FFE701208DF80F002EE000208DF8BF
:103FE0000F002AE044F60C01C5F60201086820F033
:103FF0000700029A10430860FFF762FE0190FFE796
:1040000044F60400C5F60200006800F400510020E8
:10401000B0EB513F0DD1FFE7FFF752FE0199401A77
:10402000B0F57A7F04D9FFE701208DF80F0004E096
:10403000E6E700208DF80F00FFE79DF80F0004B0C1
:1040400080BD00000000000080B59AB018900020EC
:104050008DF857008DF856001898C0780007002892
:1040600048D5FFE71898406E149078B1FFE7149890
:10407000B0F5801F13D0FFE71498B0F5001F16D0DD
:10408000FFE71498B0F5401F19D019E044F22C4115
:10409000C5F60201086840F40030086014E0189882
:1040A0000830022103F0F0FC8DF857000CE018985E
:1040B0002830022103F0D0FD8DF8570004E003E022
:1040C00001208DF85700FFE79DF8570060B9FFE722
:1040D00044F25041C5F60201086820F44010189AD5
:1040E000526E1043086004E09DF857008DF85600AA
:1040F000FFE7FFE718984078C007002840D0FFE7A7
:104100001898806D1390042820D81399DFE801F0E7
:10411000030C141C1D0044F22C41C5F60201086872
:1041200040F40030086015E018980830002103F0D2
:10413000ABFC8DF857000DE018982830002103F0F3
:104140008BFD8DF8570005E004E003E001208DF8B9
:104150005700FFE79DF8570060B9FFE744F2504170
:10416000C5F60201086820F00700189A926D104306
:10417000086004E09DF857008DF85600FFE7FFE760
:10418000189840784007002856D5FFE71898D0F8CF
:10419000A4001290C8B1FFE71298B0F5001F1DD01F
:1041A000FFE71298B0F5800F20D0FFE71298B0F526
:1041B000C00F23D0FFE71298B0F5000F1FD0FFE724
:1041C0001298B0F5200F1BD01BE044F22C41C5F62D
:1041D0000201086840F40030086016E018980830C2
:1041E000002103F051FC8DF857000EE0189828309C
:1041F000002103F031FD8DF8570006E005E004E0F2
:1042000003E001208DF85700FFE79DF8570068B9DB
:10421000FFE744F25841C5F60201086820F4600047
:10422000189AD2F8A4201043086004E09DF85700C3
:104230008DF85600FFE7FFE7189840780007002840
:1042400056D5FFE71898D0F8A8001190C8B1FFE73D
:104250001198B0F1807F1DD0FFE71198B0F1007F79
:1042600020D0FFE71198B0F1407F23D0FFE71198ED
:10427000B0F1806F1FD0FFE71198B0F1A06F1BD095
:104280001BE044F22C41C5F60201086840F40030FE
:10429000086016E018980830002103F0F5FB8DF84F
:1042A00057000EE018982830002103F0D5FC8DF857
:1042B000570006E005E004E003E001208DF8570018
:1042C000FFE79DF8570068B9FFE744F25841C5F68B
:1042D0000201086820F0E060189AD2F8A820104384
:1042E000086004E09DF857008DF85600FFE7FFE7EF
:1042F0001898C078800700283ED5FFE71898C06C52
:104300001090F0B1FFE71098102808D0FFE7109840
:1043100020280DD0FFE71098302811D012E044F289
:104320002C41C5F60201086840F4003008600DE039
:1043300018980830022103F0A7FB8DF8570005E01C
:1043400004E003E001208DF85700FFE79DF85700D7
:1043500060B9FFE744F24C41C5F60201086820F05D
:104360003000189AD26C1043086004E09DF85700A2
:104370008DF85600FFE7FFE718984078C006002840
:104380004ED5FFE71898C06D0F90A0B1FFE70F98CA
:10439000B0F5805F18D0FFE70F98B0F5005F1BD035
:1043A000FFE70F98B0F5405F1ED0FFE70F98B0F51C
:1043B000804F1AD01AE044F22C41C5F60201086879
:1043C00040F40030086015E018980830002103F030
:1043D0005BFB8DF857000DE018982830002103F0A2
:1043E0003BFC8DF8570005E004E003E001208DF868
:1043F0005700FFE79DF8570060B9FFE744F25041CE
:10440000C5F60201086820F4E040189AD26D104306
:10441000086004E09DF857008DF85600FFE7FFE7BD
:1044200018984078800600284CD5FFE71898006E51
:104430000E90C8B1FFE70E98B0F5803F15D0FFE7AA
:104440000E98B0F5003F18D0FFE70E98B0F5403F4A
:104450001BD0FFE70E98B0F5802F17D0FFE70E981E
:10446000B0F5A02F13D013E016E018980830012102
:1044700003F00AFB8DF857000EE018982830012150
:1044800003F0EAFB8DF8570006E005E004E003E0E6
:1044900001208DF85700FFE79DF8570060B9FFE74E
:1044A00044F25041C5F60201086820F4E020189A51
:1044B000126E1043086004E09DF857008DF8560016
:1044C000FFE7FFE718984078400600284ED5FFE741
:1044D0001898D0F8AC000D90C8B1FFE70D98B0F176
:1044E000805F15D0FFE70D98B0F1005F18D0FFE7AF
:1044F0000D98B0F1405F1BD0FFE70D98B0F1804FF1
:1045000017D0FFE70D98B0F1A04F13D013E016E0DD
:1045100018980830012103F0B7FA8DF857000EE023
:1045200018982830012103F097FB8DF8570006E01A
:1045300005E004E003E001208DF85700FFE79DF857
:10454000570068B9FFE744F25841C5F60201086810
:1045500020F0E040189AD2F8AC201043086004E044
:104560009DF857008DF85600FFE7FFE71898407850
:10457000000600283BD5FFE71898C06E0C90D8B114
:10458000FFE70C98B0F1805F05D0FFE70C98B0F121
:10459000005F09D011E044F22C41C5F60201086821
:1045A00040F4003008600CE018980830012103F056
:1045B0006BFA8DF8570004E003E001208DF85700F6
:1045C000FFE79DF8570060B9FFE744F25041C5F698
:1045D0000201086820F04050189AD26E104308601B
:1045E00004E09DF857008DF85600FFE7FFE71898A4
:1045F000C078C007002837D0FFE71898806C0B9070
:10460000032817D80B99DFE801F014020B1344F2CA
:104610002C41C5F60201086840F4003008600DE046
:1046200018980830022103F02FFA8DF8570005E0A2
:1046300004E003E001208DF85700FFE79DF85700E4
:1046400060B9FFE744F24C41C5F60201086820F06A
:104650000300189A926C1043086004E09DF857001C
:104660008DF85600FFE7FFE718988078400600288D
:1046700040F1B480FFE744F60001C5F60201086886
:1046800040F480700860FFF71BFB1690FFE744F6CC
:104690000000C5F602000068C00500280CD4FFE742
:1046A000FFF70EFB1699401A652804D3FFE7032095
:1046B0008DF8570000E0EAE79DF85700002840F029
:1046C0008780FFE744F27040C5F60200006800F4FE
:1046D00040701899D1F8B01001F44071884213D09D
:1046E000FFE744F27041C5F60201086820F440700B
:1046F0001790086840F480300860086820F4803023
:10470000086017980860FFE71898D0F8B000B0F577
:10471000807F1FD1FFE7FFF7D3FA1690FFE744F23F
:104720007040C5F60200006800F002010020B0EB06
:10473000510F0ED1FFE7FFF7C3FA1699401A41F265
:104740008931884204D3FFE703208DF8570000E049
:10475000E5E7FFE79DF85700A0BBFFE7FFE71898E4
:10476000D0F8B00000F44070B0F5407F13D1FFE7FF
:1047700044F21041C5F60201086820F47C50189AF2
:10478000D2F8B0204FF6F043C0F6FF731A4040EA6B
:104790001210086008E044F21041C5F602010868F2
:1047A00020F47C500860FFE71898D0F8B0206FF331
:1047B0001F3244F27041C5F60201086810430860D8
:1047C000FFE704E09DF857008DF85600FFE704E08E
:1047D0009DF857008DF85600FFE7FFE7189800682E
:1047E000C007002800F04C80FFE71898806F0A90FF
:1047F00028282BD80A99DFE801F015292929292929
:10480000292916292929292929291E292929292936
:10481000292926292929292929292729292929290D
:104820002929280016E018980830012103F02CF9F6
:104830008DF857000EE018982830012103F00CFA8B
:104840008DF8570006E005E004E003E001208DF854
:104850005700FFE79DF8570060B9FFE744F2544165
:10486000C5F60201086820F03800189A926F1043CC
:10487000086004E09DF857008DF85600FFE7FFE759
:10488000189800788007002839D5FFE71898406FFE
:104890000990052819D80999DFE801F003040C14E0
:1048A000151616E018980830012103F0EDF88DF880
:1048B00057000EE018982830012103F0CDF98DF84B
:1048C000570006E005E004E003E001208DF8570002
:1048D000FFE79DF8570060B9FFE744F25441C5F681
:1048E0000201086820F00700189A526F1043086010
:1048F00004E09DF857008DF85600FFE7FFE7189891
:104900000078400700283BD5FFE71898D0F89000C2
:104910000890052819D80899DFE801F003040C1461
:10492000151616E018980830012103F0ADF88DF83F
:1049300057000EE018982830012103F08DF98DF80A
:10494000570006E005E004E003E001208DF8570081
:10495000FFE79DF8570068B9FFE744F25841C5F6F4
:104960000201086820F00700189AD2F8902010433E
:10497000086004E09DF857008DF85600FFE7FFE758
:1049800018980078800600284ED5FFE71898D0F8D0
:104990008C000790C8B1FFE70798B0F1805F15D091
:1049A000FFE70798B0F1005F18D0FFE70798B0F174
:1049B000405F1BD0FFE70798B0F1804F17D0FFE7AB
:1049C0000798B0F1A04F13D013E016E01898083004
:1049D000002103F059F88DF857000EE018982830A0
:1049E000022103F039F98DF8570006E005E004E0F4
:1049F00003E001208DF85700FFE79DF8570068B9E4
:104A0000FFE744F25441C5F60201086820F0E04097
:104A1000189AD2F88C201043086004E09DF85700E3
:104A20008DF85600FFE7FFE7189800784006002849
:104A30004ED5FFE71898D0F898000690C8B1FFE768
:104A40000698B0F5806F15D0FFE70698B0F5006FB7
:104A500018D0FFE70698B0F5406F1BD0FFE7069827
:104A6000B0F5805F17D0FFE70698B0F5A05F13D0D0
:104A700013E016E018980830002103F005F88DF8CF
:104A800057000EE018982830022103F0E5F88DF861
:104A9000570006E005E004E003E001208DF8570030
:104AA000FFE79DF8570068B9FFE744F25841C5F6A3
:104AB0000201086820F4E050189AD2F898201043B8
:104AC000086004E09DF857008DF85600FFE7FFE707
:104AD00018980078000600284ED5FFE71898D0F8FF
:104AE0009C000590C8B1FFE70598B0F5005F15D0B0
:104AF000FFE70598B0F5804F18D0FFE70598B0F5AF
:104B0000C04F1BD0FFE70598B0F5004F17D0FFE767
:104B10000598B0F5204F13D013E016E01898083030
:104B2000002102F0B1FF8DF857000EE018982830F0
:104B3000022103F091F88DF8570006E005E004E04B
:104B400003E001208DF85700FFE79DF8570068B992
:104B5000FFE744F25841C5F60201086820F46040BE
:104B6000189AD2F89C201043086004E09DF8570082
:104B70008DF85600FFE7FFE7189800780007002837
:104B800020D5FFE71898D0F88000B0F5805F0CD1F1
:104B9000FFE718982830022103F05EF820B1FFE704
:104BA00001208DF85600FFE7FFE744F25441C5F6B7
:104BB0000201086820F44050189AD2F8802010436F
:104BC0000860FFE718980078C006002820D5FFE7A6
:104BD0001898D0F89400B0F5807F0CD1FFE71898B2
:104BE0002830022103F038F820B1FFE701208DF8CA
:104BF0005600FFE7FFE744F25841C5F60201086896
:104C000020F44070189AD2F8942010430860FFE70F
:104C100018988078000700283CD5FFE71898D0F84E
:104C2000A000049050B1FFE70498B0F5803F0DD08C
:104C3000FFE70498B0F5003F10D010E01898083056
:104C4000002102F021FF8DF857000CE01898283061
:104C5000022103F001F88DF8570004E003E0012081
:104C60008DF85700FFE79DF8570068B9FFE744F259
:104C70005841C5F60201086820F44030189AD2F86D
:104C8000A0201043086004E09DF857008DF85600FE
:104C9000FFE7FFE718988078400700283FD5FFE737
:104CA0001898D0F884000390B0F5801F0AD0FFE771
:104CB0000398B0F5001F0ED0FFE70398B0F5401F32
:104CC00011D011E044F22C41C5F60201086840F40D
:104CD000003008600CE018982830012102F0BCFF79
:104CE0008DF8570004E003E001208DF85700FFE73E
:104CF0009DF8570068B9FFE744F25441C5F6020138
:104D0000086820F44010189AD2F8842010430860F4
:104D100004E09DF857008DF85600FFE7FFE718986C
:104D20008078C007A8B3FFE71898006D029028B1FB
:104D3000FFE70298B0F5803F09D010E044F22C4123
:104D4000C5F60201086840F4003008600BE01898CE
:104D50000830022102F098FE8DF8570003E0012090
:104D60008DF85700FFE79DF8570060B9FFE744F260
:104D70004C41C5F60201086820F48030189A126D83
:104D80001043086004E09DF857008DF85600FFE7D7
:104D9000FFE71898C078800600280CD5FFE7189820
:104DA0002830022102F058FF20B1FFE701208DF8E2
:104DB0005600FFE7FFE718988078800700283AD56B
:104DC000FFE71898C06F0190D0B1FFE70198B0F5E8
:104DD000807F0AD0FFE70198B0F5007F0ED0FFE793
:104DE0000198B0F5407F0AD00BE044F22C41C5F6A3
:104DF0000201086840F40030086006E005E004E0C5
:104E000003E001208DF85700FFE79DF8570060B9D7
:104E1000FFE744F25441C5F60201086820F44070EF
:104E2000189AD26F1043086004E09DF857008DF87F
:104E30005600FFE7FFE718988078C00600280CD5D9
:104E4000FFE744F25041C5F60201086820F0004037
:104E5000189A126F10430860FFE718988078800650
:104E600000280CD5FFE744F25041C5F6020108685E
:104E700020F08070189A926E10430860FFE718982F
:104E8000C0784006002811D5FFE7FFE744F2104143
:104E9000C5F60201086820F4004008601898D0F8B0
:104EA000B420086810430860FFE7FFE71898C0784F
:104EB000000600280CD5FFE744F24C41C5F602017C
:104EC000086820F04050189A526D10430860FFE7C0
:104ED00018988078000600280DD5FFE744F2544169
:104EE000C5F60201086820F44000189AD2F888201C
:104EF00010430860FFE718980079C00790B1FFE7FA
:104F000018980830002102F0BFFD8DF857009DF879
:104F1000570008B9FFE704E09DF857008DF85600E8
:104F2000FFE7FFE7189800798007002812D5FFE710
:104F300018980830012102F0A7FD8DF857009DF860
:104F4000570008B9FFE704E09DF857008DF85600B8
:104F5000FFE7FFE7189800794007002812D5FFE720
:104F600018980830022102F08FFD8DF857009DF847
:104F7000570008B9FFE704E09DF857008DF8560088
:104F8000FFE7FFE7189800790007002812D5FFE730
:104F900018982830002102F05FFE8DF857009DF828
:104FA000570008B9FFE704E09DF857008DF8560058
:104FB000FFE7FFE718980079C006002812D5FFE741
:104FC00018982830012102F047FE8DF857009DF80F
:104FD000570008B9FFE704E09DF857008DF8560028
:104FE000FFE7FFE7189800798006002812D5FFE751
:104FF00018982830022102F02FFE8DF857009DF8F6
:10500000570008B9FFE704E09DF857008DF85600F7
:10501000FFE7FFE79DF8560020B9FFE700208DF875
:10502000670003E001208DF86700FFE79DF8670047
:105030001AB080BD0000000080B586B004900391D6
:10504000049820B9FFE701208DF817003CE203988F
:1050500042F20001C5F20021096801F00F01884207
:1050600016D9FFE742F20000C5F20020016821F0E6
:105070000F01039A11430160006800F00F000399CB
:10508000884204D0FFE701208DF817001CE2FFE7FB
:10509000049800784007002819D5FFE704980069B4
:1050A00044F21841C5F60201096801F07001884216
:1050B0000CD9FFE744F21841C5F60201086820F058
:1050C0007000049A126910430860FFE7FFE7049834
:1050D00000780007002819D5FFE70498406944F2DA
:1050E0001C41C5F60201096801F0700188420CD923
:1050F000FFE744F21C41C5F60201086820F0700089
:10510000049A526910430860FFE7FFE704980078AB
:10511000C006002819D5FFE70498806944F21C41B5
:10512000C5F60201096801F4E06188420CD9FFE785
:1051300044F21C41C5F60201086820F4E060049ABC
:10514000926910430860FFE7FFE704980078800643
:10515000002819D5FFE70498C06944F22041C5F63C
:105160000201096801F0700188420CD9FFE744F29E
:105170002041C5F60201086820F07000049AD26947
:1051800010430860FFE7FFE70498007880070028D5
:1051900019D5FFE70498C06844F21841C5F602012A
:1051A000096801F00F0188420CD9FFE744F2184169
:1051B000C5F60201086820F00F00049AD268104377
:1051C0000860FFE7FFE704980078C007002800F0B8
:1051D0008C80FFE744F21841C5F60201086820F40C
:1051E0007060049A9268104308600498406802282E
:1051F00011D1FFE744F20040C5F60200006800F458
:1052000000310020B0EB514F04D1FFE701208DF8B1
:10521000170059E13EE004984068032811D1FFE7E8
:1052200044F20040C5F60200006800F00071002062
:10523000B0EB516F04D1FFE701208DF8170043E177
:1052400027E004984068012811D1FFE744F20040AC
:10525000C5F60200006800F480710020B0EB112F49
:1052600004D1FFE701208DF817002DE110E044F292
:105270000040C5F60200006800F004010020B0EB19
:10528000910F04D1FFE701208DF817001CE1FFE723
:10529000FFE7FFE744F21041C5F60201086820F07D
:1052A0000700049A526810430860FEF709FD019058
:1052B000FFE744F21040C5F60200006800F0380035
:1052C00004994968B0EBC10F0ED0FFE7FEF7F8FC78
:1052D0000199401A41F28931884204D3FFE7032043
:1052E0008DF81700F0E0E4E7FFE704980078800706
:1052F000002819D5FFE70498C06844F21841C5F6A4
:105300000201096801F00F0188420CD2FFE744F264
:105310001841C5F60201086820F00F00049AD2680F
:1053200010430860FFE7FFE7039842F20001C5F26F
:105330000021096801F00F01884216D2FFE742F20E
:105340000000C5F20020016821F00F01039A11430B
:105350000160006800F00F000399884204D0FFE765
:1053600001208DF81700AFE0FFE7049800784007B0
:10537000002819D5FFE70498006944F21841C5F6E2
:105380000201096801F0700188420CD2FFE744F283
:105390001841C5F60201086820F07000049A1269ED
:1053A00010430860FFE7FFE7049800780007002833
:1053B00019D5FFE70498406944F21C41C5F6020183
:1053C000096801F0700188420CD2FFE744F21C41E9
:1053D000C5F60201086820F07000049A5269104373
:1053E0000860FFE7FFE704980078C006002819D599
:1053F000FFE70498806944F21C41C5F60201096880
:1054000001F4E06188420CD2FFE744F21C41C5F68A
:105410000201086820F4E060049A92691043086071
:10542000FFE7FFE7049800788006002819D5FFE71A
:105430000498C06944F22041C5F60201096801F0F0
:10544000700188420CD2FFE744F22041C5F6020108
:10545000086820F07000049AD26910430860FFE7E2
:10546000FFE700F0B9F844F21842C5F602021168ED
:10547000C1F303234FF6FC31C0F60001CB5C03F00F
:105480001F03D84000900098126802F00F02895C58
:1054900001F01F01C84040F21801C2F2004108604B
:1054A000009840F21401C2F20041086040F22C0062
:1054B000C2F200400068FEF75BFC8DF80B009DF81F
:1054C0000B008DF81700FFE79DF8170006B080BDB0
:1054D00082B00190009101993F20086044F2104091
:1054E000C5F60200006800F007000199486044F228
:1054F0001840C5F60200016801F47061019A9160DC
:10550000016801F00F01019AD160006800F070009D
:105510000199086144F21C40C5F60200016801F0DF
:105520007001019A5161006800F4E060019988619E
:1055300044F22040C5F60200006800F070000199B6
:10554000C86142F20000C5F20020006800F00F00C0
:105550000099086002B0704780B582B000F03CF856
:1055600044F21842C5F602021168C1F303234FF654
:10557000FC31C0F60001CB5C03F01F03D840019062
:105580000198126802F00F02895C01F01F0120FAF5
:1055900001F140F21800C2F200400160019940F2AE
:1055A0001402C2F200421160006802B080BD000027
:1055B00080B5FFF7D1FF44F21C41C5F6020109682E
:1055C000C1F302224FF6FC31C0F60001895C01F004
:1055D0001F01C84080BD00008AB044F21040C5F6EB
:1055E0000200006800F0380001460191182800F21E
:1055F0005F810199DFE811F019005C015C015C0139
:105600005C015C015C015C013A005C015C015C01D5
:105610005C015C015C015C0140005C015C015C01BF
:105620005C015C015C015C01460044F20040C5F68F
:105630000200006800F020010020B0EB511F0ED0E6
:10564000FFE744F20040C5F602000068C0F3C10164
:1056500049F20000C0F2D030C840029005E049F2A3
:105660000000C0F2D0300290FFE727E140F60010C2
:10567000C0F23D00029021E143F20060C0F26E10E2
:1056800002901BE144F22840C5F60200016801F0D7
:10569000030108910068C0F30510079044F22C4004
:1056A000C5F60200006800F001000690069844F27A
:1056B0003441C5F60201096889B2C908484300EEC1
:1056C000100AB8EE400A8DED040A0798002800F091
:1056D000EB80FFE70898009048B1FFE700980128A9
:1056E00065D0FFE70098022800F08380A3E044F231
:1056F0000040C5F60200006800F020010020B0EB79
:10570000511F31D0FFE744F20040C5F602000068A7
:10571000C0F3C10149F20000C0F2D030C84005908A
:105720009DED050AB8EE400A9DED071AB8EE411A44
:1057300080EE010A44F23040C5F6020000686FF3C3
:105740005F2001EE100AB8EE411A9DED042A9FED8C
:105750005E3A02EE031AB7EE002A31EE021A20EE8C
:10576000010A8DED030A21E09DED070AB8EE401A0B
:105770009FED570A80EE010A44F23040C5F6020060
:1057800000686FF35F2001EE100AB8EE411A9DED3C
:10579000042A9FED4D3A02EE031AB7EE002A31EECD
:1057A000021A20EE010A8DED030AFFE765E09DED88
:1057B000070AB8EE401A9FED450A80EE010A44F24E
:1057C0003040C5F6020000686FF35F2001EE100A5A
:1057D000B8EE411A9DED042A9FED3B3A02EE031A02
:1057E000B7EE002A31EE021A20EE010A8DED030A0F
:1057F00043E09DED070AB8EE401A9FED320A80EEB5
:10580000010A44F23040C5F6020000686FF35F20E1
:1058100001EE100AB8EE411A9DED042A9FED2A3AD6
:1058200002EE031AB7EE002A31EE021A20EE010A48
:105830008DED030A21E09DED070AB8EE401A9FEDB9
:10584000230A80EE010A44F23040C5F602000068E7
:105850006FF35F2001EE100AB8EE411A9DED042AA5
:105860009FED193A02EE031AB7EE002A31EE021A42
:1058700020EE010A8DED030AFFE744F23040C5F641
:105880000200006881B2012000EB512009909DEDDB
:10589000030A9DED091AB8EE411A80EE010ABCEE2A
:1058A000C00A8DED020A02E000200290FFE705E049
:1058B00040F60010C0F23D000290FFE702980AB0E7
:1058C000704700BF001BB74B000000390024744A2A
:1058D0000024744C0000000080B58CB00A900A9837
:1058E00028B9FFE701208DF82F0000F001BD0A98CC
:1058F0000078C007002800F0B980FFE744F21040AC
:10590000C5F60200006800F03800069044F2284016
:10591000C5F6020000680590069810280AD0FFE737
:10592000069818281CD1FFE7059800F0030002280C
:1059300016D1FFE744F20040C5F60200006800F40B
:1059400000310020B0EB514F09D0FFE70A984068C2
:1059500028B9FFE701208DF82F0000F0C9BC84E0D2
:10596000FFE70A984068B0F5803F09D1FFE744F2AD
:105970000041C5F60201086840F48030086032E05A
:105980000A98406868B9FFE744F20041C5F6020191
:10599000086820F480300860086820F480200860DF
:1059A00020E00A984068B0F5A02F0DD1FFE744F23F
:1059B0000041C5F60201086840F4802008600868CC
:1059C00040F4803008600CE044F20041C5F602016A
:1059D000086820F480300860086820F4802008609F
:1059E000FFE7FFE7FFE7FFE70A984068F0B1FFE74E
:1059F000FEF766F90990FFE744F20040C5F60200A1
:105A0000006800F400310020B0EB514F0DD1FFE7EA
:105A1000FEF756F90999401A652805D3FFE70320D8
:105A20008DF82F0000F064BCE6E71DE0FEF748F9B2
:105A30000990FFE744F20040C5F60200006800F458
:105A400000310020B0EB514F0DD0FFE7FEF738F9E1
:105A50000999401A652805D3FFE703208DF82F0028
:105A600000F046BCE6E7FFE7FFE7FFE70A980078AB
:105A70008007002840F1C580FFE744F21040C5F6DA
:105A80000200006800F03800049044F22840C5F697
:105A9000020000680390049850B1FFE704981828AA
:105AA00050D1FFE79DF80C00800700284AD1FFE79E
:105AB00044F20040C5F60200006800F00401002036
:105AC000B0EB910F09D0FFE70A98C06828B9FFE74B
:105AD00001208DF82F0000F00BBC44F20041C5F608
