:020000040800F2
:1000000090DE00246104000869330008F93200081A
:100010006133000851230008613700080000000028
:10002000000000000000000000000000E1330008B4
:100030005923000800000000713300081134000843
:100040007F0400087F0400087F0400087F04000884
:100050007F0400087F0400087F0400087F04000874
:100060007F0400087F0400087F0400087F04000864
:100070007F0400087F0400087F0400087F04000854
:100080007F0400087F0400087F0400087F04000844
:100090007F0400087F0400087F0400087F04000834
:1000A0007F0400087F0400087F0400087F04000824
:1000B0007F0400087F0400087F0400087F04000814
:1000C0007F0400087F0400087F0400087F04000804
:1000D0007F0400087F0400087F0400087F040008F4
:1000E0007F0400087F040008000000007F0400086F
:1000F0007F0400087F0400087F0400087F040008D4
:100100007F0400087F0400087F0400087F040008C3
:100110007F0400087F0400087F0400087F040008B3
:100120007F0400087F0400087F0400087F040008A3
:100130007F0400087F0400087F0400087F04000893
:1001400000000000000000000000000000000000AF
:100150007F0400087F0400087F0400087F04000873
:100160007F0400087F0400087F0400087F04000863
:100170007F0400087F0400087F04000800000000DE
:100180007F0400087F0400087F0400087F04000843
:100190007F0400087F0400087F0400087F04000833
:1001A0007F0400087F0400087F04000800000000AE
:1001B0007F0400087F0400087F0400087F04000813
:1001C0007F0400087F040008000000000000000019
:1001D00000000000000000007F0400080000000094
:1001E000000000000000000000000000000000000F
:1001F00000000000000000007F0400087F040008E9
:100200007F0400087F040008000000007F0400084D
:100210007F040008D93500087F0400087F04000827
:100220007F040008000000007F04000800000000B8
:100230007F0400087F040008000000007F0400081D
:100240007F0400087F0400087F0400087F04000882
:100250007F0400087F0400087F0400087F04000872
:100260007F0400087F0400087F0400087F04000862
:100270007F0400087F0400087F04000800000000DD
:100280007F0400087F0400087F0400087F04000842
:10029000000000007F0400087F0400080000000048
:1002A000000000007F0400087F0400087F040008AD
:1002B0007F0400087F0400087F0400087F04000812
:1002C0007F0400087F0400087F04000800F002F8A3
:1002D00000F0B7F814A696E8000CB244B344DA452F
:1002E00001D100F0AEF8BAE80F000FA696E8300092
:1002F000A5EB040504EB0607AAEB0704A7F1010729
:100300004FEA15154FEA3414A4F10104AC4201D3AD
:1003100000F097F813F0010F18BFFB1A43F0010328
:1003200000F001F8DBE71847486900006869000041
:10033000103A24BF78C878C1FAD8520724BF30C811
:1003400030C144BF04680C60704700007047000073
:100350000023002400250026103A28BF78C1FBD8CE
:10036000520728BF30C148BF0B6070476E2900F0AC
:100370003D83702900F07384662906F0288365297F
:1003800006F02583672906F02283612906F0218380
:1003900003681B0A28BF41F08001692900F0EA8246
:1003A000642900F0E782752900F0E4826F2900F0EB
:1003B0000184782900F03F84E92900F09B83E42937
:1003C00000F09883F52900F09583EF2900F0FE8373
:1003D000F82900F03E840368DB0928BF41F0800162
:1003E000632901F07782732901F07C82E32901F00F
:1003F0008782F32901F08C82002070471FB506F038
:10040000D9FA9DE8030000F01DFA01F0DFFB0400BB
:100410000020002106F0B8FA401C60600020002196
:1004200006F09CFAE06000F0B7FD00F0E7FC00F099
:10043000E9F81FBD10B5002000F07CFD00F047FD7D
:1004400010BD00F0BCFD1146FFF7D8FF03F0C8FB5C
:1004500001F04CFB03B4FFF7EDFF03BC00F0CAF959
:100460000A4880470A4880470A480047FEE7FEE7F7
:10047000FEE7FEE7FEE7FEE7FEE7FEE7FEE7FEE754
:1004800005480649064A074B7047000061230008EB
:1004900001350008CD02000890D8002490DE002429
:1004A00090DA002490DA00240B460146184600F04A
:1004B0007DB9032A40F2308010F0030C00F0158063
:1004C00011F8013BBCF1020F624498BF11F801CB57
:1004D00000F8013B38BF11F8013BA2F1040298BFBC
:1004E00000F801CB38BF00F8013B11F0030300F026
:1004F0002580083AC0F0088051F8043B083A51F8CA
:1005000004CBA0E80810F5E7121D5CBF51F8043BCE
:1005100040F8043BAFF30080D20724BF11F8013B41
:1005200011F801CB48BF11F8012B24BF00F8013BA3
:1005300000F801CB48BF00F8012B704710B5203AF6
:10054000C0F00B80B1E81850A0E81850B1E818507E
:10055000A0E81850203ABFF4F5AF5FEA027C24BF50
:10056000B1E81850A0E8185044BF18C918C0BDE839
:1005700010405FEA827C24BF51F8043B40F8043B02
:1005800008BF7047D20728BF31F8023B48BF11F8B7
:10059000012B28BF20F8023B48BF00F8012B704711
:1005A00002F0FF0343EA032242EA024200F002B8EB
:1005B0004FF0000200B5134694469646203922BFFC
:1005C000A0E80C50A0E80C50B1F12001BFF4F7AF47
:1005D000090728BFA0E80C5048BF0CC05DF804EB29
:1005E000890028BF40F8042B08BF704748BF20F897
:1005F000022B11F0804F18BF00F8012B7047704795
:100600007047704708487CB57844009007487844A4
:10061000009C0546019004E020460168084480479C
:10062000241DAC42F8D17CBDB0670000B267000069
:1006300070B5064600F0E6F8056806F10B0020F0FC
:100640000704B4429CBF002070BD2B466A68BAB153
:100650001068A04210D304F1080188423CBF5068E2
:10066000586007D35168101941601168091B016077
:1006700058601460101D70BD13465268002AE7D1FF
:100680002146284600F0CAF80028DED170BD70B5BA
:100690000446051F00F0B6F80068002C14BF44683B
:1006A00070BD002C18BFAC423CBF20466468F8D334
:1006B00001680A18AA4218BF456003D12A68054696
:1006C0001144016028684119A1421CBF6C6070BDD3
:1006D0006168696021680844286070BD2DE9F047B1
:1006E00091460C46804600F08DF80768604234EA77
:1006F000000001D1042C02D20520BDE8F087601E65
:1007000040F0070609F10B0020F007054D4539D9E7
:100710003B467A6882B31468101D404206EA000C1A
:10072000644525D9A4EB0C00854221D8BCF1000F0B
:100730000BD0104601686244A1EB0C0111604168C6
:100740005160C0F800C058600346116805F1080008
:10075000814205D35019491B01601560586003465A
:1007600052F8040F58600020C8F80020BDE8F08758
:1007700013465268002ACED12946384600F04EF87A
:100780000028C5D10620BDE8F0870B460146184673
:1007900000F040B910B5002000F004FCFFF74AFE5D
:1007A000BDE81040012000F025B800002DE9F0411F
:1007B000074615460E461020FFF73AFF040013D0F7
:1007C0006760C4E902650948AFF3008000F01EF8D5
:1007D0000168216006490460002008600348AFF307
:1007E00000800020BDE8F0810120FBE7100000241C
:1007F0000C00002401491820ABBEFEE726000200D1
:1008000000207047004870472C01002400487047C2
:100810005C010024704770477047704738B5044644
:100820000A4600206946AFF30080002808BF38BDA3
:1008300002460099204600F0E7FB012038BD012068
:1008400001F081B9F8B5AFF30080054600200C46F1
:100850000C2000BF0646A819A0420DD932466946B1
:100860000020AFF30080070008BF01F06CF900988A
:10087000A04218BF0546C419FFF7C4FF056007462C
:10088000F01D20F007004619284600F00AF8B4428F
:1008900008BFF8BDA21B31463868BDE8F84000F03B
:1008A000B3BB00210160416070470C20704770B5F8
:1008B000044685690068C10601D5302600E020267F
:1008C000C00707D070BDD4E9012130469047206AA7
:1008D000401C20626D1EF6D570BD70B5044685695A
:1008E0000078C00707D170BDD4E9012120209047CE
:1008F000206A401C20626D1EF6D570BD09684A054D
:1009000001D540B27047C905FCD500B270470968EF
:100910004A0501D5C0B27047C905FCD580B2704701
:1009200070B50C460546012A05D02878800600D50A
:10093000EA69002302E0012305E05B1C934202D236
:10094000E05C0028F9D1A869E618C01AA861286AF5
:10095000184428622846FFF7AAFF04E0D5E90121E0
:1009600014F8010B9047B442F8D32846FFF7B5FFBF
:1009700070BD00002DE9F04106460024106875297D
:10098000314616A510D0FFF7B9FF002802DA404221
:1009900013A507E031688A0701D512A502E04907CF
:1009A00004D511A5012401E0FFF7B1FF00210A22BF
:1009B00006F1240709E0B0FBF2FCB0FBF2F302FB06
:1009C0001C00303078541846491C0028F3D12346C7
:1009D0002A463046BDE8F04100F075BB000000003B
:1009E0002D0000002B0000002000000011680268AC
:1009F000006A530501D508700AE0D30501D50880C7
:100A000006E0130603D5C217C1E9000200E0086042
:100A100001207047074B70B50D467B4400F03DFF49
:100A20000446284600F078FF10B14FF0FF3070BD4B
:100A3000204670BD215F00002DE9FF5F15468A4604
:100A40000446DFF8AC80F8440027D8E900103E46A1
:100A5000CDE9001010E03AF816106A4602A801F03D
:100A600021F8411C07D02178890603D5E26939189D
:100A700091420DD80744761C2078800602D5E069A3
:100A8000B84205DDAE42E6DB3AF816000028E2D1B6
:100A9000A069C01BA0612046FFF709FFD8E900103C
:100AA000CDE90010002017E03AF818106A4602A8B5
:100AB00000F0F8FFB0F1FF3F81460BD000250DF1AB
:100AC000080B05E0D4E901211BF8050090476D1CD7
:100AD0004D45F7D308F10100B0428046E4DB206ABF
:100AE000384420622046FFF7F8FEBDE8FF9F000073
:100AF0008E5F00002DE9F0418046D21D22F00702F2
:100B00000025D2E90002F52915A614D0011E72F1C4
:100B1000000106DA0023D0EB030063EB020211A60A
:100B200008E0D8F800108B0701D50FA602E04907AE
:100B300001D50EA601251146002408F1240704E082
:100B400000F07CFA30323A55641C50EA0102F7D1C9
:100B50002B46324621464046BDE8F04100F0B3BA8C
:100B6000000000002D0000002B000000200000000D
:100B700030B4002100F1240408E002F00705D20897
:100B8000303542EA4372DB086554491C52EA0305DA
:100B9000F3D10468002310A2250708D504F020042F
:100BA0000C4304D0C46901230CA2641EC46130BC90
:100BB00000F089BA10B5044621461068FFF7A7FE79
:100BC00002462046BDE810400023D1E7D21D22F0A6
:100BD0000701D1E90023CBE700000000300000004E
:100BE000F0B40D460188090502D5214C7C4402E091
:100BF0001F4C7C440E34002100F1240608E002F072
:100C00000F071209E75D42EA03721B097754491C7A
:100C100052EA0307F3D102780023120704D5702D9E
:100C200006D009B1022311342246F0BC00F04BBAC1
:100C300001231034F8E770B504460D4621461068CC
:100C4000FFF765FE024629462046BDE870400023B6
:100C5000C6E7D21D22F00703D3E90023C0E70368EB
:100C6000126843F0200303600823C3610023B7E741
:100C7000F05D00002DE9F05F894604464FF0000A60
:100C8000DFF874B1FB44C0F820A02046E168884733
:100C9000002874D0252806D0D4E901219047206A85
:100CA000401C2062F1E700265F462046E168884745
:100CB0002028054607DB312D05D2781910F8200CC5
:100CC00008B10643F1E7B00701D526F00406C4F8E1
:100CD0001CA00027C4F818A02A2D09D0284605F02A
:100CE00027FE38B304EB8708303DC8F8185019E0E8
:100CF00059F8041B204604EB87029161E16888479C
:100D0000012F054618D1E069002820DA26F02006D8
:100D10001DE0D8F8180000EB800005EB40003038EB
:100D2000C8F818002046E1688847054605F000FE2F
:100D30000028EED1012F0AD02E2D08D12046E168DF
:100D400088477F1C0546022F46F02006C4DBA069B9
:100D5000002803DA404246F00106A061F00701D006
:100D600026F010066C2D0BD0682D09D04C2D39D0F3
:100D70006A2D35D0742D35D07A2D33D016E038E079
:100D8000E1682F4620468847B842054609D16C2FB6
:100D900026D04FF48060E168064320468847054628
:100DA00004E06C2F1AD04FF4807006430DB3A5F108
:100DB0004100192802D8203546F400664A462946E3
:100DC000204626604E46FFF7D1FA80B101280BD0AD
:100DD000F61D26F0070000F1080956E74020E4E779
:100DE0008020D8E70020D6E706F104094DE7284621
:100DF00052E7206ABDE8F09F805D000010B54248D0
:100E00005421FFF7D5FB41485421FFF7D1FB40485F
:100E10005421FFF7CDFB3F493B483C4A3F4B08601C
:100E20003D490A603A491960531C0365481C106526
:100E3000012008653B48344A39A1784400F094FD0C
:100E400020B9384878440A3800F076FE37482F4AEF
:100E500035A1784400F088FD20B9344878440A3838
:100E600000F06AFE32482A4A2FA1784400F07CFD47
:100E700020B92F4878440A3800F05EFE402322480B
:100E8000DC000021224600F04BFD20B125487844CB
:100E9000543800F051FE1D4822464023002100F046
:100EA0003FFD20B121487844543800F045FE1848F1
:100EB00022461023002100F033FD002806D01C48F4
:100EC0007844BDE81040563800F036BE10BD1048DA
:100ED00070B5006D20F001040B4800F0BDFD0B481B
:100EE00000F0BAFD0A4800F0B7FD09E0206D20F0DF
:100EF0000105204600F0B0FD2046FFF7C8FB2C4658
:100F0000002CF3D170BD0000280000247C000024D8
:100F1000D000002400000024040000240800002465
:100F200072000000DB5B000077000000C75B000080
:100F3000B35B00002DE9F84306461548AFF3008087
:100F4000FFF764FC134F8146E8464D4616E026B194
:100F5000E068B04201D0254610E0206828600C48C7
:100F6000C7F80080AFF30080D4E901018847084842
:100F7000AFF300803968414500D04D462C68002C05
:100F8000E5D1002038600248AFF30080BDE8F88367
:100F9000100000240C0000240148FFF731BC0000C1
:100FA0001000002410B500F0AFFDBDE8104000F0C7
:100FB000A6BD000000487047240100247047754614
:100FC000FFF7F8FFAE4605006946534620F00700DC
:100FD000854618B020B5FFF753FABDE820404FF022
:100FE00000064FF000074FF000084FF0000BAC4632
:100FF000ACE8C009ACE8C009ACE8C009ACE8C0097D
:1010000021F007018D467047034640688C46002852
:1010100018BF88423CBF03464068F8D3186818449C
:10102000884207D00CF1030020F00700001D411A90
:10103000521A0146081D0A60FFF729BB30B5B0F10E
:101040000A0271F100034FEA900E4EEA817EB0EB86
:101050000E0061EB91014FEA101E4EEA017E10EB8B
:101060000E0041EB11114FEA102E4EEA016E10EB0B
:101070000E0041EB11214FEA104E4EEA014E10EBEB
:101080000E0041EB1141401841F100014FEAD00040
:1010900040EA41704FEAD1014FEA810444EA90747A
:1010A00010EB800544EB01046D1944EB0404521B62
:1010B000A3414FF0000348BF0A3200D530BD401CA9
:1010C00041F1000130BD2DE9F0470D4699469246A9
:1010D000044600F124080168880604D5E06921F07F
:1010E0001001216000E00120A84201DD471B00E063
:1010F0000027A1697A1902EB0900081AA06120787B
:10110000C00602D42046FFF7D2FB002608E0D4E94F
:1011100001211AF806009047206A401C761C2062C4
:101120004E45F4DB2078C0060AD52046FFF7BFFB0A
:1011300006E0D4E9012130209047206A401C20625B
:10114000381EA7F10107F4DC07E0D4E9012118F803
:1011500005009047206A401C2062281EA5F1010569
:10116000F3DC2046FFF7B9FB2078000602D5022009
:10117000BDE8F0870120FBE72DE9FF4F0C461E4636
:101180004FF0FF378BB0D2E90001DDF860800A90A4
:101190008A46C1F30A5505B93D46002108464FF07D
:1011A0000000BAF1000F00F4400005DA00EB800007
:1011B0004FF4400101EA50004FEA9059B9F1010F94
:1011C00000DDB9460A9850EA4A000ED044F61050A5
:1011D000A5F2FF3545432F14B8F1000F1ED075421C
:1011E000291E1EDDC9F100021CE0B8F1010F4FF00D
:1011F000000001D0302103E0F24305E02154401CFF
:10120000B042FBDB30460022002121540B99C1F88B
:101210000880C1E900200FB0BDE8F08FBD1B6D1C38
:10122000DEE74A4600DA694206A800F013FD06AB85
:1012300093E8070003AB83E8070050460A9904F0DF
:1012400085FF8DE80700A0F500501F380090039837
:10125000002D0ADD42F21F014A460844002303A97B
:101260000390684605F0EEF909E0A0F500504A4603
:101270001F38002303A90390684605F0F8F98DE8AC
:1012800007000004000C03D04FF0FF30410800E0DD
:101290001046B8F1000F03D00022009215461EE060
:1012A000751E05D4FFF7CAFE303262556D1EF9D5A2
:1012B000B3460122084302D000227F1C04E02078BC
:1012C000302801D100227F1E002A099784D01DE01A
:1012D000112D07DAFFF7B2FE303262556D1C50EA6D
:1012E0000102F5D1084302D00098C8B10EE00021F8
:1012F000681E05E0235C625C63542254401E491C56
:101300008142F7DBAB46A81B401E0990002004F881
:101310000B000B98099AC0F80880C0E9002B7AE707
:1013200011264FF0000857E72DE9F04F8846044694
:10133000D21D22F0070191B0D1E90001CDE90A01E7
:1013400005F0DEFA02460B98C00F01D02D2007E011
:101350002068810701D52B2002E0202101EAC0008E
:10136000032A099001D0072A05DB0346414620469F
:1013700000F030FC0BE12078800601D5E06900E048
:101380000620B8F1650F814606D0B8F1660F18D077
:10139000B8F1670F70D131E00020B9F1110F009062
:1013A00001DB112301E009F101030AAA01A90CA83C
:1013B000FFF7E2FEDDE90C70002609F10105834626
:1013C00047E001204B4600904FF000470AAA01A9D0
:1013D0000CA8FFF7D1FEDDE90DB00C995D460026A3
:1013E00010B909F101000D18B9EB050003D4C0F1E3
:1013F000FF3609F10105A5EB09002BE0B9F1010F5A
:1014000001DA4FF001090020B9F1110F00904846B0
:1014100001DD112300E003460AAA01A90CA8FFF789
:10142000ABFEDDE90C704D460026834620780007B0
:101430000AD4AB4500DA5D4601A8012D04DD41194F
:1014400011F8011C302907D04F4502DA17F1040FBB
:1014500004DA012082460FE06D1EEEE7002F02DC69
:10146000ED1B3E4403E0781CA84200DD7D1CB81B48
:1014700000F1010A4FF000472078000703D4AA4585
:1014800001DB4FF0FF3A0021B7F1004F0DF14308A7
:101490008DF8431024D002202B23002F01DA7F4245
:1014A0002D230A21021EA0F1010000DC5FB197FB91
:1014B000F1FC97FBF1F201FB1C7C17460CF1300CA0
:1014C00008F801CDEEE7A8F10100037021880905B5
:1014D00001D5452100E06521A0F1010800F8011CBB
:1014E00009980FA9A1EB0807FF1D00B101204119C0
:1014F00001EBEA70A1693844081A401EA061207807
:10150000C00602D42046FFF7D2F9099828B1D4E9E1
:1015100001219047206A401C20622078C00622D515
:101520002046FFF7C4F91EE0002E04DBB34502DDC0
:1015300001A8805D00E03020D4E901219047206AB5
:10154000401C2062761CAAF101005FEA000A0AD161
:1015500000F03CFBC0680168405CD4E90121904781
:10156000206A401C2062281EA5F10105DCDC07E092
:10157000D4E9012118F8010B9047206A401C206231
:10158000381EA7F10107F3DC2046FFF7A6F9032078
:1015900011B041E62DE9F04F04460D46D21D22F070
:1015A000070089B0D0E900974846394605F0A8F908
:1015B0000246F80F01D02D2307E02068810701D5EE
:1015C0002B2302E0202101EAC0038DF820300BB16B
:1015D000012000E00020032A824601D0072A04DB14
:1015E0002946204600F0F6FA3FE12078800601D433
:1015F0000D2500E0E569C7F30A560D2D49DA0021F3
:101600004FEA175B08464FF00000002F00F440003F
:1016100007DA00EB80004FF4400100EBD07001EAE4
:1016200060008115012901DD4FF0FF3100224FEAF2
:10163000850CBCF1180F06D31346ACF118004FF01F
:101640008052C24003E04FF4801323FA0CF30CF1F4
:101650000C0CBCF1200F04D3ACF1200C09FA0CF0F7
:1016600001E007FA0CF000294FF0004801DD18B93D
:101670000FE00ED140450CD319EB02095F4121B9AF
:10168000404502D19F4329EA0209BBEB175F00D016
:10169000761C2088000502D57B48784402E07A4811
:1016A0007844193808AA302302F80A30037C0AF17A
:1016B0000101002E0AF1020A53546A4602DC4FF07F
:1016C000300101E04FF031014FF001088DF80010BA
:1016D00002D0A6F2FF3603E059EA470100D06B4E74
:1016E000002D02DC2178090704D54FF002082E21D5
:1016F0008DF80110C44600210BE0C7F303433F01FE
:10170000C35C491C6D1E02F80830052908F1010868
:1017100001DA002DF1DC00210CE000EB1973491C0B
:101720001B786D1E082902F808304FEA091908F1E4
:10173000010801DA002DF0DC21688B0602D516E0E5
:10174000A8F10108E04505DD02EB080313F8013CB0
:10175000302BF5D0B8F1000F09DD02EB080313F8C8
:10176000013C2E2B03D1090701D4A8F10108002D5B
:1017700005DD3E2102F808106D1E08F10108407CCD
:10178000002E02F8080008F1010804DA2D20764244
:1017900002F8080002E02B2002F808000A214FF4AA
:1017A0007A70864208F101080BDB96FBF0F33033C8
:1017B00002F8083096FBF0F308F1010800FB13660D
:1017C00001E0642E0CDB642096FBF0F3303302F86A
:1017D000083096FBF0F308F1010800FB136601E006
:1017E0000A2E06DB96FBF1F0303002F8080008F113
:1017F000010896FBF1F001FB1060303002F80800A0
:10180000A16908F1010808EB050202EB0A00081AB9
:10181000A0612078C00602D42046FFF748F8216A6C
:1018200008AE01EB0A00206204E0D4E9012116F8B9
:10183000010B9047BAF1010AF7D22078C00602D511
:101840002046FFF734F86E4609E016F8010B3E28F3
:101850000FD0D4E901219047206A401C2062B8F1E2
:101860000108F2D22046FFF738F809B00320BDE89E
:10187000F08F206A2844206203E0D4E9012130205F
:1018800090476D1EEBD3F8E79A53000002FCFFFF70
:1018900001694A1C02610878704700B58FB0CDE934
:1018A00001310021059105497944CDE90310114624
:1018B0006846FFF7DFF90FB000BD0000E5FFFFFF4E
:1018C00010B5436913B1AFF3008001E0FFF728F8CA
:1018D000012010BD127800F124010A7000224A7024
:1018E0000122EDE711684FF0FF32E9E710B54369D7
:1018F00013B1AFF3008001E0FFF79EF8012010BDA7
:10190000128800F1240182840022C2840122EDE7C2
:1019100011684FF0FF32E9E7007B00F0800070476C
:1019200070B5C468A50713D0650211D4B2F5807FE5
:1019300009D0B2F5007F06D0B2F5806F08D101233F
:1019400000F1240106E05D1E6FF07F46B54201D331
:10195000012070BD0161C361416024F470611143D5
:10196000C160002070BD00002DE9F0410C46164614
:10197000070047D0104600F06FF82078611C6128FE
:101980000AD0722802D077283CD102E00125002439
:1019900005E00225042402E0082448F2020511F8BB
:1019A000010B2B2806D0622809D011F8010C7428ED
:1019B0000AD00BE045F0030544F00204EFE745F0E0
:1019C000040544F00104EAE744F0100438462146D7
:1019D00000F0C0F8411C15D00021316171604FF456
:1019E0000071F560F1617061200704D53046022274
:1019F000002100F093FA306D40F001003065304670
:101A0000BDE8F0810020FBE72DE9F0410D460646D8
:101A1000104C206DC10704D0410804D020F001040F
:101A2000F7E722460EE05420FEF702FE07000ED034
:101A3000206D47F001010843542120653846FEF728
:101A4000B7FD3A4629463046BDE8F0418CE7002014
:101A5000D6E70000280000242DE9F04704464FF0A7
:101A6000FF380026C568D4E90497A80718D0204697
:101A700000F010FB384600F077F8002800DA464600
:101A8000280502D54846FEF702FE4C212046FEF707
:101A90008FFD206D20F0010020653046BDE8F08705
:101AA0004046FBE72DE9F04116460C46054600F09E
:101AB00085F8036893F80101012807D0FF2C12D89C
:101AC000185D80B101202C70BDE8F081D3F80701CA
:101AD0003246214603F20713C7182846BC46BDE824
:101AE000F041002360474FF0FF30EDE710B50446AA
:101AF000AFF300802046BDE81040FEF7ABBC0028E5
:101B000001D0FEF777BE704710B5002102A000F0AB
:101B100005FB012010BD0000534947414252543A91
:101B20002041626E6F726D616C207465726D696EBA
:101B30006174696F6E00000010B500F009FBBDE82C
:101B40001040FFF7DCBF10B500F01CFBBDE81040F3
:101B5000FFF7D5BF0EB5CDE9000100F063FB0290A1
:101B600069460120ABBE0EBD08B569460090022053
:101B7000ABBE08BD1FB58DE8070069460520ABBEAA
:101B800004B010BD1FB58DE80F0069460620ABBE3E
:101B9000F6E708B5694600900920ABBE08BD1CB544
:101BA000CDE9000169460A20ABBE1CBD704708B5EF
:101BB000694600900C20ABBE08BD000010B500F0D7
:101BC00005F8001D10BD00BFC14D00000048704762
:101BD000440100242DE9F0411F4604460326016814
:101BE000072A01F4006004DB08B116A505E016A57C
:101BF00003E008B115A500E015A521F01000206054
:101C0000A069C01EA0610FB1401EA0612046FEF772
:101C10004EFE4FB1D4E9012138469047206A401C5E
:101C20002062C01C206206E0206AFAE7D4E90121A4
:101C300015F8010B9047761EF8D22046FEF74DFEB0
:101C4000BDE8F0814E414E006E616E00494E460087
:101C5000696E66002DE9F047814616468AB0354820
:101C600078440DC88DE80D0032487844801C03ACE0
:101C70000DC884E80D0041F69B300844372190FBE5
:101C8000F1F290FBF1F5A5F1800501FB12041B3C7C
:101C900002D56442012000E00020DFF898A08046D1
:101CA0000027FA44AAF1BE0A0EE0E0070AD0324645
:101CB000684607EB470101230AEB810104F0D7FCDA
:101CC0008DE8070064107F1C002CEED1194F7F4473
:101CD000AE3F19E0E80715D007EB04100DF1180A24
:101CE00090E80E008AE80E00C068F04201D1981911
:101CF00008903246012306A903A804F0B8FC03AB00
:101D000083E807006D10641C002DE3D14FF0010340
:101D100032466946B8F1000F03A802D004F092FCE5
:101D200001E004F0A4FCC9E90001C9F808200AB0E8
:101D3000BDE8F087644E00002DE9F05F05461746C8
:101D40000C46C86820F4201040F48000C86080066B
:101D500002D5084600F0C1F9E06841F282014FF077
:101D6000FF3A0140022903D0204600F053F9B9E0C0
:101D700000F42041B1F5004F0FD1C00306D56168D2
:101D8000E06A884200D80846606006E02069E062A8
:101D900060606069FFF70BFFA061A0680022EEB2EF
:101DA00000280DDAE1688B050AD4C043A06041F435
:101DB00090302260E0606068411C61600670AAE0BB
:101DC000E0689146226040F40050E060206978BBF2
:101DD0006069FFF7DEFE04F124054FF00108A8B1A9
:101DE000A08910F4407F08D0E069FEF721FC206153
:101DF00018B1E06840F4006017E0C4F81C80256169
:101E0000E06820F4407040F480600EE0E069FEF786
:101E10000FFC00282061F0D0E06840F4006010F46E
:101E2000407FE06002D140F48070E0602069606033
:101E3000E06825696FF0010BC1051ED56168E06A95
:101E4000884200D80846411B04D02246284600F0AC
:101E5000EBF8E8BB1FB1E562C4E9015959E0681C21
:101E6000E0626060E069401EA060E06840F480309D
:101E7000E06030462E70BDE8F09F17B100F480326C
:101E80000AE06068411C61600670E0680A2E40F458
:101E90008030E06006D00022E16A6068814203D9A8
:101EA0000B4602E00122F7E70346B4F80CC05B1BC7
:101EB0005FEA4C5C04D4D4F81CC09C4500DD02B33E
:101EC000814200D80146002BA1EB0008E56200E04A
:101ED00008E0C4E9015907DD22461946284600F00A
:101EE000A3F808B15046C6E7B8F1000F09D0A169C0
:101EF000E5626560A1EB0800A061E06840F01000B9
:101F0000E06047B16168A069E562491B084465600B
:101F1000A0615846AFE73046ADE700002DE9F0413B
:101F2000044616460D464769007B80072ED038468A
:101F3000FFF72FFE50BB3EB3012E02D0022E25D15B
:101F400004E0204600F04DF905441DE03846FFF757
:101F50002EFEE168002841F01001E16005DA20461C
:101F600000F058F80120BDE8F081C9030BD5626884
:101F7000E16A914200D81146A26911442269891A86
:101F8000814200DD08460544002D01DA0220EAE71F
:101F9000E16A6068E268814206D29103E06203D59B
:101FA00022F4003141F01002A6690027AE4213DC92
:101FB000E16A814201D90B4600E0034603EB060CBF
:101FC0002369ACEB030CAC4506DD814201D98C469C
:101FD00000E084469C4505D1A760276042F02000C0
:101FE000A5620DE0AD1BE669AE1B8142A66000D97B
:101FF0000846C01A281A20605819606022F0200094
:1020000003490840E060002084F84870ABE7000016
:10201000BFCFD7FFC16821F4001141F08001C1603A
:1020200000218160016070472DE9F74F15460C468D
:102030004FF0FF3B3848D768D2F814A0074209D0C8
:102040005046A969FFF7ABFD002819DB3248C043B1
:102050000740EF604FF000496FF000484C4501D356
:10206000464600E0264600993B4650463246FFF77A
:1020700081FDA96920F00042B21A1144A96128B17A
:102080002846FFF7C7FF5846BDE8FE8FA41BE5D1E1
:102090000020F9E770B504460569C06A61688842A6
:1020A00000D80846E16821F42011E160C90312D587
:1020B000A84208D02246411B2846FFF7B5FF10B1C1
:1020C0004FF0FF3070BD0020E562C4E90150E068C8
:1020D00020F48030E060002070BD10B50446C06878
:1020E00020F02000E060A16AA06988420DD020465F
:1020F000FFF7D0FFE06820F4405040F01000E060AF
:10210000A06AA0612069E062606044F24001E0687A
:102110008843E06010BD00001000020070B5054665
:102120000C460A2000E06D1C00F054F835B1287808
:102130000028F8D102E0641C00F04CF814B12078BB
:102140000028F8D1BDE870400A2000F043B8000034
:1021500010B5014602A0FFF7E1FF012010BD00000D
:1021600053494752545245443A2052656469726556
:1021700063743A2063616E2774206F70656E3A2035
:102180000000000010B5012805D0002103A0FFF7D2
:10219000C5FF012010BD09A1F8E7000053494752CF
:1021A000544D454D3A204F7574206F662068656127
:1021B00070206D656D6F7279000000003A204865EF
:1021C0006170206D656D6F727920636F72727570CA
:1021D0007465640008B569468DF800000320ABBE45
:1021E00008BD10B50146C268900703D0900607D518
:1021F000886A0AE000F076F801210160881E10BDAF
:102200008B69486818440B69C01A91F848301BB1B3
:1022100091F84910401A10BD1103FCD50028FADDD1
:10222000401E10BD10B5431C02E010F8011B71B137
:102230008107FAD14FF0013202C88C1A8C4314EA9C
:10224000C211F9D0C01A0A0603D0C01E10BDC01AB0
:1022500010BD0A0401D0801E10BD0902FCD0401E32
:1022600010BD00000000000030B44FF0013C50F8F9
:10227000042BCCFA52F451F8043BD51A20D1FCB906
:1022800050F8042BCCFA52F451F8043BD51A17D16C
:10229000B4B950F8042BCCFA52F451F8043BD51AD7
:1022A0000ED16CB950F8042BCCFA52F451F8043B1F
:1022B000D51A05D1002CDAD030BC4FF000007047A1
:1022C00029BAB1FA81F111F01801D1F1200084404E
:1022D000F2D1CA40CB4012F0FF0213F0FF0330BC32
:1022E000D01A704700487047240100240000000005
:1022F0002DE9F04184B040F6A030C2F20040D0E9B0
:102300000005A84220D043F6890800F12006C0F657
:10231000000803E0301D2436A84215D016F8200C22
:102320000128F7D136F8182C56F81C1C56E9053050
:1023300056E901478DE89100404603F0D1FC56F87C
:10234000081C0860E6E700BF04B0BDE8F0810000AB
:10235000FEE70000000000007047000000000000E1
:1023600044F60400C5F60200816841F00201816074
:102370000168890409D4016889045CBF01685FEAC7
:10238000814102D401688904F2D570470000000041
:102390004DF25010C2F2004000687047000000008B
:1023A00040F214004DF25011C2F20040C2F200415E
:1023B00000780A68104408607047000000000000C0
:1023C00080B5032000F02CF900F0EAFA44F218413D
:1023D00046F6E023C5F60201C0F600030A68C2F320
:1023E00003229A5C096801F00F0102F01F02595C98
:1023F000D04040F22002C2F2004201F01F0120FA58
:1024000001F1116040F21C01C2F2004108600F208E
:1024100000F00AF800281CBF012080BD00F0A4F8DD
:10242000002080BD000000000F2843D8B0B58AB05E
:102430000446752000222146002500F0C1F87520D1
:1024400000F0AAF840F21800C2F20040046044F222
:10245000F040C5F60200016841F4003101600068F7
:1024600001A900F400300290029802A800F03CFAA2
:1024700000F066FA4DF683614000C4F21B3144F26D
:102480000042A0FB010140F6B430C2F200404FF020
:10249000FF33C4F20102026003EB9141C0E9011570
:1024A00040F2E731C0E9031500F0AEFD20B1012094
:1024B0000AB0B0BD0120704740F6B430C2F200400F
:1024C00000F0D6FD0AB0B0BD10B54EF6A05E437860
:1024D000CEF2000E90F800C04EF8083CDEF8003056
:1024E00023F00103CEF8003043684EF8043C037B30
:1024F000C27A817A447B120642EA0372837B42EA03
:10250000C141C27B41EA8441447A41EA4341007AB5
:1025100041EA024141EA042141EA400040EA0C005C
:10252000CEF8000010BD00004EF62450CEF20000A0
:10253000BFF35F8F016821F48031016000210167E2
:1025400070470000000000004EF6245140F00100EA
:10255000CEF200010867086840F480300860BFF3DD
:102560004F8FBFF36F8F704781B044F2F440002269
:10257000C5F60200016841F00201016000680F2108
:1025800000F0020000906FF00100009B01B000F02D
:1025900017B8000000000000002848BF704700F096
:1025A0001F01012202FA01F14EF20012C0F34A109B
:1025B000CEF2000242F82010704700000000000038
:1025C00070B54EF60C5C4FF0FF36CEF2000C00F109
:1025D000604505F56445DCF80030C3F3022E8EF04B
:1025E0000703042B28BF0423BEF1030406FA03F3F8
:1025F00021EA030100F00F0338BF0024043B002848
:10260000634406FA04F048BF03F10C05A14022EA36
:10261000000008430001287070BD000000000000A9
:102620004EF60C514FF6FF03CEF200010A681A4035
:1026300060F30A2242F0806040F0FD70086070474D
:10264000B0B544F60C05C5F60205296849072968A6
:1026500006D401F00701081A18BF0120B0BD00BF61
:1026600021F0070108432860FFF792FE044600BFEF
:1026700055F8080C800407D4FFF78AFE001BB0F55C
:102680007A7FF5D90120B0BD0020B0BD0000000068
:102690002DE9F04381B0002800F0208142F20009CA
:1026A0000446C5F20029D9F8000000F00F0081426D
:1026B0000DD9D9F8000020F00F000843C9F8000038
:1026C000D9F8000000F00F00884240F00781206830
:1026D00044F218464207C5F602060AD52269336855
:1026E00003F070039A4204D9336823F070031A434D
:1026F000326002070AD56269736803F070039A4278
:1027000004D9736823F070031A437260C2060AD5B5
:10271000A269736803F4E0639A4204D9736823F4EE
:10272000E0631A43726082060AD5E269B36803F077
:1027300070039A4204D9B36823F070031A43B2605D
:1027400010F002020AD0E368376807F00F07BB42B7
:1027500004D9376827F00F073B433360C3073FD0E6
:10276000306820F47062D4E901031A433260012812
:1027700056F8182C0AD0032804D002280AD1920354
:102780000BD4ABE0920108D4A8E000BFD20504D47A
:10279000A4E000BF520740F1A180884656F8081C0B
:1027A00021F00701084346F8080CFFF7F1FD054644
:1027B00041F2883756F8080C616800F03800B0EB39
:1027C000C10F09D0FFF7E4FD401BB842F2D9032046
:1027D00001B0BDE8F08300BF2068414600F002026E
:1027E00052B1E268336803F00F039A4204D23368AF
:1027F00023F00F031A433260D9F8002002F00F02D1
:1028000091420CD2D9F8002022F00F020A43C9F8F5
:102810000020D9F8002002F00F028A425ED1410761
:102820000AD52169326802F07002914204D23268FE
:1028300022F070021143316001070AD561697268A4
:1028400002F07002914204D2726822F070021143C9
:102850007160C1060AD5A169726802F4E062914212
:1028600004D2726822F4E0621143716080060AD5D6
:10287000E069B16801F07001884204D2B16821F0CA
:1028800070010843B06000F08BF8316846F6E02232
:10289000C0F60002C1F30321515C336803F00F035B
:1028A00001F01F01D25C20FA01F102F01F0040F29A
:1028B0002002C2F2004221FA00F0106040F218003B
:1028C00040F21C02C2F20040C2F2004200681160F5
:1028D00001B0BDE8F043FFF7A7BD00BF012001B084
:1028E000BDE8F083000000003F22026044F218427D
:1028F000C5F6020252F8083C03F007034360136870
:1029000003F470638360136803F00F03C3601368FC
:1029100003F070030361536803F07003436153686D
:1029200003F4E0638361926802F07002C26142F2D4
:102930000000C5F20020006800F00F00086070473A
:1029400080B500F02DF844F2184C46F6E023C5F6A9
:10295000020CC0F60003DCF80020C2F303229A5CEC
:10296000DCF8001001F00F0102F01F02595CD040AA
:1029700040F22002C2F2004201F01F0120FA01F1F0
:10298000116040F21C02C2F200421060DCF8040048
:10299000C0F30220185C00F01F0021FA00F080BD97
:1029A00044F20041C5F602010869C0F3C2000328E1
:1029B00016D002280ED0002832D10868800649F2CD
:1029C0000000C0F2D03058BF70470968C1F3C101A0
:1029D000C840704743F20060C0F26E10704700BFFD
:1029E0008B6A886AD1F82CC04A6BC0F30510E8B135
:1029F000C2F3CC0203F0030300EE102A9FED2A1A63
:102A0000B8EE400A20EE010A9FED281ADFE803F035
:102A1000022110210A6892060ED49FED261A18E0B2
:102A200040F60010C0F23D00704700BF0020704724
:102A30009FED1F1A0DE000BF0A6849F20003C0F2C3
:102A4000D033C2F3C10223FA02F201EE102AB8EE2B
:102A5000411A0A6B9FED183A6FF35F2202EE102ABB
:102A60005FEACC7203FE000A03EE100A086BB8EEB0
:102A7000422AC0F34620B8EE433A013030EE020A53
:102A8000B7EE002A81EE031A30EE020A21EE000AA8
:102A900001EE100AB8EE411A80EE010ABCEEC00A3F
:102AA00010EE100A704700BF000000390024744A7D
:102AB000001BB74B0024744C000000000000000015
:102AC00070B3F0B581B00446007844F20046C00708
:102AD000C5F6020626D1207880076AD5306910F045
:102AE0003801B06A42D0182908BF5FEA80703DD033
:102AF000E0683168002800F02D8121F019010843B9
:102B00003060FFF745FC0546306840074AD4FFF7C0
:102B10003FFC401B0228F7D9032001B0F0BD00BFE5
:102B200001207047306900F03801B06A102905D0E3
:102B300018290BD100F00300022807D13068800368
:102B4000C9D560680028C6D1AAE000BF61683068B6
:102B5000002900F03981B1F5A02F00F02D81B1F5E9
:102B6000803F40F0478140F4803049E130684007C1
:102B7000E06802D5002800F09380316821F0190147
:102B800008433060FFF704FC054600BF306840078B
:102B900008D4FFF7FDFB401B02284FF00300F5D9D6
:102BA00001B0F0BD7068216920F0FE4040EA01608C
:102BB00070602078C0061AD5306900F03801B06A1C
:102BC000082907D0182940F0858000F0030001286B
:102BD00040F080803068C00502D5E06980285FD170
:102BE000F068216A20F07C5040EA0160F0602078B3
:102BF00000073FD42078800656D42078400700F1A3
:102C00008180656A9DB3306900F03800182840F073
:102C10001981012DB16A306B42D001F00302A36A21
:102C20009A423DD1C1F30511E26A914238D1014681
:102C3000226B6FF35F21013A914231D1C0F34622FA
:102C4000616B01398A422BD1C0F30642A16B013975
:102C50008A4225D1C0F30660E16B013988421FD159
:102C6000706BA16CC0F3CC00814240F0A5810020C4
:102C700001B0F0BD60690028706F59D040F00100CC
:102C80007067FFF785FB0546706F8007B2D4FFF7CA
:102C90007FFB401B0228F7D9032001B0F0BD00BF25
:102CA000012001B0F0BD00BFA0690028306871D0DC
:102CB00040F480503060FFF76BFB054630688004BD
:102CC0009BD4FFF765FB401B0228F7D9032001B016
:102CD000F0BD00BFE0690028306800F0A18040F03E
:102CE00080003060FFF754FB054600BF3068C00528
:102CF0003FF576AFFFF74CFB401B02284FF0030077
:102D0000F4D94DE7D6F8000440F48070C6F800040A
:102D1000FFF73EFB054600BFD6F80004C0052BD4E4
:102D2000FFF736FB401B6428F6D9032001B0F0BD45
:102D300020F001007067FFF72BFB0546706F8007DE
:102D40007FF558AFFFF724FB401B02284FF003002C
:102D5000F4D925E721F001003060FFF719FB0546A3
:102D6000306840077FF525AFFFF712FB401B0228B4
:102D70004FF00300F4D913E7A168306F002900F089
:102D80008B80052900F08080012940F09D8040F073
:102D900001009FE020F480503060FFF7F9FA05460B
:102DA000306880047FF529AFFFF7F2FA401B022854
:102DB0004FF00300F4D9F3E640F48020306030682F
:102DC00040F480301CE000BF20F480303060306878
:102DD00020F480203060FFF7DBFA0546306880037E
:102DE0007FF579AEFFF7D4FA401B64284FF003005B
:102DF000F4D9D5E620F480303060306820F48020AB
:102E00003060FFF7C5FA0546306880033FF563AED2
:102E1000FFF7BEFA401B6428F6D9032001B0F0BDCD
:102E200020F080003060FFF7B3FA05463068C00537
:102E30007FF5DDAEFFF7ACFA401B02284FF0030030
:102E4000F4D9ADE6306820F080703060FFF7A0FA6A
:102E5000022D05460CD100BF306880014CD5FFF72C
:102E600097FA401B02284FF00300F5D998E600BFFF
:102E7000306880017FF5FBAEFFF78AFA401B02281D
:102E80004FF00300F4D98BE640F004003067306F58
:102E900040F001001EE000BF20F001003067306FFD
:102EA00020F004003067FFF773FA054641F28837D7
:102EB000306F80077FF5A5AEFFF76AFA401BB84276
:102EC0004FF00300F4D96BE620F001003067306F5B
:102ED00020F004003067FFF75BFA054641F28837BF
:102EE000306F80073FF58DAEFFF752FA401BB842B6
:102EF0004FF00300F4D953E604F12807B06A40F21A
:102F0000F33188438ECF0843591E40EA02104FF434
:102F10007E426FF35F21B06202EB47204FF4FE0266
:102F200080B2E36B0844A16B02EB01414FF0FE421B
:102F300001F4FE0102EB0362084402F0FE41084482
:102F40003063F06A4FF6F87120F00100F062706BA8
:102F5000A26C884340EAC2007063F06A216C20F0E2
:102F60000C000843F062F06A616C20F00200084334
:102F7000F062F06A40F48030F062F06A40F40030B1
:102F8000F062F06A40F48020F062F06A40F00100E4
:102F9000F062306840F080703060FFF7F9F9044665
:102FA000306880013FF563AEFFF7F2F9001B02289D
:102FB0004FF00300F4D9F3E5F06A20F00100F0626D
:102FC000FFF7E6F90546FFF7E3F9A842FBD0706B7F
:102FD0004FF6F871A26C884340EAC2007063F06A51
:102FE00040F00100F062002001B0F0BD00000000E0
:102FF0007047000000000000704700000000000063
:10300000704700000000000060B310B5044690F85F
:103010003D0028B9002084F83C00204600F024F848
:10302000022084F83D002068211D00F0DDFA012017
:1030300084F8480084F83E0084F83F0084F840009B
:1030400084F8410084F8420084F8430084F8440086
:1030500084F8450084F8460084F8470084F83D0071
:10306000002010BD012070477047000000000000E4
:1030700090F83D10012927D1022180F83D10016808
:103080004DF6FF70C4F200008142C86840F00100B4
:10309000C8601BDC40F2FF70C4F2000081422DDDED
:1030A00040F60000C4F2000081423DD040F60040EE
:1030B000C4F20000814237D041F60000C4F20000A3
:1030C000814231D03CE000BF012070474FF6FF70D5
:1030D000C4F2000081421BDD0020C4F201008142E5
:1030E00022D044F20000C4F2010081421CD040F220
:1030F0000040C4F20100814216D021E0B1F1804FBE
:1031000012D040F20040C4F2000081420CD017E01F
:103110004EF20000C4F20000814205D04EF20040A1
:10312000C4F2000081420BD107228868C0F201027C
:1031300002400020062A18BFB2F5803F00D1704738
:10314000086840F00100086000207047000000009F
:103150007047000000000000F0B581B00446006830
:10316000C5680669B10717D515F0020114D06FF0D4
:1031700002010161012121778069800704D0204686
:10318000FFF7E6FF06E000BF204600F09DF820466E
:1031900000F09EF800202077700719D515F0040084
:1031A00016D020686FF00401016102212177806947
:1031B00010F4407F04D02046FFF7CAFF06E000BFAE
:1031C000204600F081F8204600F082F800202077A9
:1031D000300717D515F0080014D020686FF00801EB
:1031E000016104212177C069800703D02046FFF7E1
:1031F000AFFF05E0204600F067F8204600F068F8D1
:1032000000202077F00619D515F0100016D02068A0
:103210006FF01001016108212177C06910F4407F2F
:1032200004D02046FFF794FF06E000BF204600F0E0
:103230004BF8204600F04CF800202077F00718BF2C
:1032400015F0010006D020686FF0010101612046F1
:1032500000F042F805F0800716F4025F18BF002F57
:1032600002D1F00509D410E020686FF40251016129
:103270002046FFF7C1FEF00507D537B120686FF48F
:10328000807101612046FFF7B3FE700609D515F085
:10329000400006D020686FF040010161204600F038
:1032A00027F8B0060CD515F0200009D020686FF083
:1032B00020010161204601B0BDE8F040FFF7A0BE4B
:1032C00001B0F0BD000000007047000000000000E9
:1032D000704700000000000044F200410068C4F2A2
:1032E0000101884218BF7047FFF75AB8000000007C
:1032F0007047000000000000FEE700000000000032
:1033000080B5FEF7F5FF43F2094046F66032C0F69D
:103310000000C0F60002002100F0CEFC40F6B03103
:10332000C2F20041086080BD82B044F2E040C5F6C0
:103330000200016841F080010160016801F0800134
:1033400001910199016841F001010160006800F0FC
:1033500001000090009802B07047000000000000DB
:10336000FEE7000000000000FEE700000000000093
:10337000EFF30980BFF36F8F154B1A681EF0100F23
:1033800008BF20ED108A20E9F04F10602DE90900F8
:103390004FF0500080F31188BFF34F8FBFF36F8F52
:1033A00001F0BEFE4FF0000080F31188BDE8090077
:1033B00019680868B0E8F04F1EF0100F08BFB0ECB5
:1033C000108A80F30988BFF36F8F704700BF00BF7A
:1033D0008401002400000000000000000000000044
:1033E000074B19680868B0E8F04F80F30988BFF30D
:1033F0006F8F4FF0000080F31188704700BF00BF4F
:103400008401002400000000012000F00DFCFBE717
:1034100080B54EF21000CEF20000006802F0A0FC71
:10342000012808BF80BDBDE8804002F0D1B800008F
:10343000B0B59CB044F6180409A84C21C5F60204A6
:10344000FDF7B6F802200025CDE90755CDE9055571
:10345000CDE90355CDE90155FFF7F2F80095206855
:1034600020F440402060206800F440400090009824
:103470002068800409D4206880045CBF20685FEA6B
:10348000804002D420688004F2D502200990129076
:10349000002504220121CDE917200C200C91CDE953
:1034A00019054FF440601B9009A840240D94222375
:1034B00013951492CDE91531FFF702FB20B1EFF31C
:1034C000108072B6FEE700BF3F2001900320032169
:1034D000CDE9020508200694CDE904044FF480608C
:1034E000CDE9070401A8FFF7D3F828B1EFF3108066
:1034F00072B600BFFEE700BF1CB0B0BD0000000008
:103500004EF6885042F2000CCEF20000C5F2002CBC
:10351000026842F470020260DCF8000000F00F0064
:10352000062806D8DCF80000072262F30300CCF876
:10353000000044F200404EF67F51C5F60200CEF680
:10354000F621026842F00102026000220261036873
:1035500019400160DCF80010090706D5DCF80010FE
:10356000072363F30301CCF8001040F200218261CD
:10357000C261C0F20221026281620021C0F2FF1129
:10358000C16240F28021C0F2011101634263816394
:10359000C26301644264016821F480210160026613
:1035A000D0F8D410C90448BF7047D0F8D41043F203
:1035B000D20241F48051C0F8D41044F20001C5F2A7
:1035C00000210A60D0F8D41021F48051C0F8D41042
:1035D000704700000000000040F6B430C2F2004026
:1035E000FFF7BABD0000000010B540F6FF32D0F87A
:1035F00000E0C4F20002904210DCB0F1804F1ED017
:1036000040F20043C4F20003984218D040F6000391
:10361000C4F20003984212D016E000BF40F6004307
:10362000C4F2000398420AD040F20043C4F20103FE
:10363000984204D00023C4F20103984204D12EF032
:1036400070024B6843EA020E4EF2FF3343F6FF7CF2
:10365000C4F20003C4F2010C984213DD60452BDC78
:103660004EF20043C4F20003984242D00023C4F259
:10367000010398423DD040F20043C4F20103984256
:1036800037D03BE040F2FF73C4F20003984227DDDD
:1036900040F60003C4F2000398422AD040F60043EB
:1036A000C4F20003984224D04EF20003C4F2000397
:1036B00098421ED022E000BF44F20003C4F201038E
:1036C000984216D044F60003C4F20103984210D089
:1036D00044F20043C4F2010398420AD00EE000BF56
:1036E000B0F1804F05D040F20043C4F2000398428D
:1036F00004D12EF44072CB6843EA020E4B69604558
:103700000A688C68C462826212DD44F20002C4F26C
:103710000102904217D044F60002C4F20102904226
:1037200011D044F20042C4F2010290420BD00CE0EE
:103730000022C4F20102904205D040F20042C4F2DD
:103740000102904201D109690163016841F004015D
:103750000160012141612EF080011943016010BD1B
:10376000FEE700000000000070B540F2902646F62B
:10377000F020C2F20046C0F600003446354608305C
:10378000306046F6C6300021C6E90111C6E90311D2
:10379000012204F8142FC0F60000B0614FF400704D
:1037A000B0830420706206F15800B26240F2A03289
:1037B000C6F8041186F80811C2F20042C6F80C11CE
:1037C000C6E90F11C6E91111C6E9131145F8381FF2
:1037D00086F8541060213662C6E90B0206F15C02DD
:1037E0007263FCF7E5FE06F1BC004721FCF7E0FE42
:1037F000284601F009FD7060204600F069F846F6A1
:103800002830C0F600000830306070BD10B50446A6
:10381000012898BF012400BF2046FCF709FF0028BB
:1038200018BF10BD00F050F908B18047F4E7002040
:1038300010BD0000F0B581B00C460546012898BFC8
:103840000125042998BF04240027684621462A46FA
:103850000097FCF743FF009878B96E4600F034F902
:1038600050B18047304621462A460097FCF736FF84
:1038700000980028F2D000E0002001B0F0BD000068
:10388000704700000000000082B0044602F078FAA1
:10389000A16A4FF47A7201902046514344F6D35204
:1038A000C1F26202A1FB021221688968950988476A
:1038B0002068016A2046884701AE00BF2068C168C1
:1038C000204688473046294601F026FAF6E70000F0
:1038D0002DE9F04740F6A039C2F20049D9E90112BA
:1038E000914215D290E88C00D0E9036544694C619F
:1038F000C1E9036581E88C00D0E90623006A08620B
:10390000C1E9062301F12405C9F80450BDE8F08798
:10391000D9F8004048F639630E1BC3F6E303B11033
:1039200001FB03F747F2C711C0F21C717D1C8D42E9
:103930004ED8A2EB04084FEAA8025A4343F6E30329
:10394000C0F28E33B5EB420F38BF55009A4228BF04
:103950000D465DB18D4241D8824605EBC500800021
:1039600002F0BCFF0146504601E000BF002107EB1A
:10397000C70305EBC50701EB830201EB870A076864
:1039800041F82370971B4168516081689160C1685C
:10399000D160016911614169516181699161C169B8
:1039A000D161006A106202F1240538462146324690
:1039B000FCF7C4FDC9F808A0C9E900751CB1204690
:1039C000414600F0C7F8C9F80450BDE8F08700BFD1
:1039D00040F6A030C2F2004000F046F800F098F83F
:1039E0000020704700000000002070470000000029
:1039F00080B582B040680121002200234FF0FF3CD7
:103A0000CDF800C001F078FC02B080BD00000000DD
:103A10004068012101F020BCFEDE00000000000033
:103A20007047000000000000704700000000000028
:103A300000207047000000000020704700000000D8
:103A40004FF4887100F086B890ED430A704700008B
:103A5000806D704700000000806D00F0FDBE00002A
:103A6000806970470000000001A000F005F800BF69
:103A7000766563746F720000014646F68430C0F6C6
:103A8000000000F000F884B0844601A80EC040F2A7
:103A9000D00001AAC2F2004061460092FCF775FE18
:103AA000FCF778FE000000000268002A08BF70479B
:103AB00010B581684260891A0446104600F04AF841
:103AC0002046BDE81040704740F6AC30C2F20040DE
:103AD0000068704701A0FFF7D6FF00BF6261645F16
:103AE000616C6C6F6320776173207468726F776E9E
:103AF00020696E202D666E6F2D6578636570746920
:103B00006F6E73206D6F64650000000000000000A0
:103B100001A0FFF7B8FF00BF6261645F617272616C
:103B2000795F6E65775F6C656E6774682077617327
:103B3000207468726F776E20696E202D666E6F2D0F
:103B4000657863657074696F6E73206D6F6465006E
:103B5000FCF79DBDFFF7FCBF01A000F065FE00BFB4
:103B600050757265207669727475616C2066756E29
:103B70006374696F6E2063616C6C65642100000082
:103B800080B540F28C20C2F200400078BFF35F8F16
:103B9000C00718BF80BD40F28C20C2F2004000F088
:103BA00029FEC8B140F6A0310020C2F2004140F227
:103BB0000002C0F60002C1E90000886043F6A920B7
:103BC000C0F60000FCF770FC40F28C20C2F200400E
:103BD000BDE8804000F024BE80BD00000000000071
:103BE00084B001200090FEF79FFC0020019048F275
:103BF0001F70029040F2011003906846FEF764FCCB
:103C00000420FEF7A1FCFEF7DBFBFFF711FCFFF73A
:103C10008BFB00F019F8FFF773FB00F02DF800BFE5
:103C2000FEE7000000000000EFF3058100291CBF43
:103C30006FF00500704728B180B501F02DF8002025
:103C400080BD00BF00207047EFF3058000281CBF37
:103C50006FF00500704740F28820C2F20040016812
:103C600000291CBF4FF0FF30704701210160002088
:103C70007047000000000000EFF3058000281CBF23
:103C80006FF00500704740F28820C2F200400168E2
:103C900001290DD180B54EF61F510022CEF2000150
:103CA0000A700221016001F0BBF9002080BD00BF55
:103CB0004FF0FF3070470000F0B585B08C46002310
:103CC0000493EFF30581B0B3A9BB2AB39469002C28
:103CD00008BF1824382C2ED81179C9072BD1566962
:103CE0004FEA960E002ED2E90257734608BF802392
:103CF00011681DB35C2F25D312690023002A18BF59
:103D0000002E18D0CDE9004272466346029501F0BC
:103D1000E7FF05B0F0BD00BF8023182400219AB250
:103D2000634604AFCDE9004701F0AAFF04990023E0
:103D3000012808BF0B46184605B0F0BD17B9126937
:103D4000002AECD00023184605B0F0BD00000000AA
:103D50002DE9F041044600F053FE40F2841640F68F
:103D6000F045C2F20046C2F20045F0680130F06052
:103D7000306858B13069002840F007813068E16A46
:103D8000C06A884298BF3460FFE000BF3460F068CA
:103D9000012840F0FA80284600F0D2FD05F1140019
:103DA00000F0CEFD05F1280000F0CAFD05F13C0051
:103DB00000F0C6FD05F1500000F0C2FD05F1640001
:103DC00000F0BEFD05F1780000F0BAFD05F18C00B1
:103DD00000F0B6FD05F1A00000F0B2FD05F1B40061
:103DE00000F0AEFD05F1C80000F0AAFD05F1DC0011
:103DF00000F0A6FD05F1F00000F0A2FD05F58270CF
:103E000000F09EFD05F58C7000F09AFD05F59670AA
:103E100000F096FD05F5A07000F092FD05F5AA7082
:103E200000F08EFD05F5B47000F08AFD05F5BE705A
:103E300000F086FD05F5C87000F082FD05F5D27032
:103E400000F07EFD05F5DC7000F07AFD05F5E6700A
:103E500000F076FD05F5F07000F072FD05F5FA70E2
:103E600000F06EFD05F5027000F06AFD05F50770C3
:103E700000F066FD05F50C7000F062FD05F51170AF
:103E800000F05EFD05F5167000F05AFD05F51B709B
:103E900000F056FD05F5207000F052FD05F5257087
:103EA00000F04EFD05F52A7000F04AFD05F52F7073
:103EB00000F046FD05F5347000F042FD05F539705F
:103EC00000F03EFD05F53E7000F03AFD05F543704B
:103ED00000F036FD05F5487000F032FD05F54D7037
:103EE00000F02EFD05F5527000F02AFD05F5577023
:103EF00000F026FD05F55C7000F022FD05F561700F
:103F000000F01EFD05F5667000F01AFD05F56B70FA
:103F100000F016FD05F5707000F012FD05F57570E6
:103F200000F00EFD05F57A7000F00AFD05F57F70D2
:103F300000F006FD05F5826000F002FD05F2244068
:103F400000F0FEFC05F5876000F0FAFC05F24C403D
:103F500000F0F6FC40F26028C2F20048404600F053
:103F6000EFFC08F11407384600F0EAFC06F16400A3
:103F700000F0E6FC06F13C0000F0E2FC06F1500027
:103F800000F0DEFCC6F81C8037627068716A421C63
:103F9000E06A72608842626488BF706200EB8000F1
:103FA000211D05EB800000F00FFD00F051FD306990
:103FB00088B13068E16AC06A884228BFBDE8F081F4
:103FC0004EF604504FF08051CEF200000160BFF376
:103FD0004F8FBFF36F8FBDE8F0810000000000003D
:103FE00040F2841540F6F0464EF60458C2F2004501
:103FF000C2F20046CEF200084FF0805703E000BF47
:10400000204600F03DFDA868D0B100F0F9FCA86C96
:10401000C468201D00F00CFCE8680138E860A8685E
:104020000138A86000F014FD94F859000228EAD085
:104030000128E5D080B9206B00F022FDE0E700BF49
:104040003068022805D3C8F80070BFF34F8FBFF364
:104050006F8F00F065FCD6E74FF0500080F31188B9
:10406000BFF36F8FBFF34F8FFEE70000000000002B
:104070002DE9F0470A9C16460F468246206B9100B8
:10408000A5229846DDE90859FCF78AFA206B002F33
:1040900000EB8600A0F1040020F0070642D038783B
:1040A00084F83400D0B3787884F83500B0B3B878A9
:1040B00084F8360090B3F87884F8370070B3387914
:1040C00084F8380050B3787984F8390030B3B8797F
:1040D00084F83A0010B3F87984F83B00F0B1387AEC
:1040E00084F83C00D0B1787A84F83D00B0B1B87A59
:1040F00084F83E0090B1F87A84F83F0070B1387BC4
:1041000084F8400050B1787B84F8410030B1B87B2E
:1041100084F8420010B1F87B84F84300002084F852
:10412000430002E0002084F83400372D04F104003D
:1041300028BF37250027C4E91357E56200F00CFCBF
:1041400004F1180000F008FCC5F13800A061304609
:104150005146424624616462676584F8587000F0F5
:1041600033FBB9F1000F206018BFC9F80040BDE86B
:10417000F08700000000000008480068006880F335
:1041800008884FF0000080F3148862B661B6BFF370
:104190004F8FBFF36F8F00DF00BF000008ED00E01E
:1041A00081B00020009040F22400C2F2004000687C
:1041B0004FF0500181F31188BFF36F8FBFF34F8F22
:1041C000013003D0FEE700BF009838B9009828B945
:1041D0000098002804BF00980028F5D001B070476F
:1041E00088B000F079FB40F2FC1A0DF11009C2F220
:1041F000004AEB46DAF8080005681DB1C06804689B
:1042000001E000BF002400F083FF01F0B9FDDAF8FF
:1042100010100646884220D3002DCAF8106051D0F5
:10422000B4424FD801F0C0FEDAF80800C068C76891
:104230003D1D284600F0FCFA97F82800410745D4B8
:1042400000F0FA0087F8280082E000BF6860394675
:10425000DAF808002D6100F083FBDAF80800016845
:1042600031B3C068C56804682F1D384600F0E0FA15
:10427000296A2846884795F828004007EDD5A8699F
:104280002044A042E2D8DAF80000002800F0408183
:1042900004A9002031C101F063FDDAF8000000221A
:1042A0000023494601F01CFA0028D6D130E100BFB6
:1042B000DAF80C10CAF81060CAE9021001F074FEB6
:1042C0004FE000BF65B1002210E000BFB8693F6158
:1042D00001197960B1421DD90AF108001FE000BF41
:1042E000DAF80C000068B0FA80F04209DAF8000051
:1042F000A11B00F09DFC01F057FE90BB4EF6045050
:104300004FF08051CEF200000160BFF34F8FBFF33A
:104310006F8F26E0311B814206D20AF10C00006843
:10432000294600F01DFB13E0DAF80000002800F039
:104330000D8104A9002091C101F012FDDAF80000FE
:1043400000220023494601F0CBF9002800F0FE804E
:10435000396A3846884704E00AF10C02106800F018
:10436000FFFADAF800000022594601F019FB002894
:104370003FF440AF0098B0F1FF3F06DCDDE90120DB
:104380000399904700980028EBD4029E706910B101
:10439000301D00F04DFA01F0F3FCDAF8101007467A
:1043A00088420CD30098CAF8107009283DD9D8E784
:1043B00068602146DAF808002D6100F0D1FADAF8D9
:1043C0000800016841B3C068C568D0F800802C1DA2
:1043D000204600F02DFA296A2846884795F82800DB
:1043E0004007ECD5A86940444045E1D8DAF8000020
:1043F000002800F0838000200695CDE9040801F034
:10440000AFFCDAF8000000220023494601F068F909
:104410000028D4D172E000BFDAF80C10CAE902100B
:104420000098CAF8107009289BD8DFE800F005054D
:104430000557415F0505574196F828003661B26976
:1044400040F00101019886F8281013183146BB424C
:1044500041F8043F08D987420AF10802BFF47EAF51
:10446000834205D27AE700BF381A9042FFF474AF56
:10447000316A3046884796F8280040077FF571AFCB
:10448000DAF8000000284DD00198B16900220492AA
:104490000844CDE9050601F063FCDAF800000022CB
:1044A0000023494601F01CF900287FF45AAF39E097
:1044B00096F8280040F001010198002886F828109D
:1044C000B06139D0314638440AF10C02B84288BF95
:1044D0000AF1080241F8040F36613FE796F8280018
:1044E00000F0FE0086F828003BE700BF96F82800A1
:1044F0008107F5D4304600F0C3FA32E74FF05000A0
:1045000080F31188BFF36F8FBFF34F8FFEE700BFBB
:104510004FF0500080F31188BFF36F8FBFF34F8FC0
:10452000FEE700BF4FF0500080F31188BFF36F8F9C
:10453000BFF34F8FFEE700BF4FF0500080F31188AC
:10454000BFF36F8FBFF34F8FFEE700BF4FF05000F8
:1045500080F31188BFF36F8FBFF34F8FFEE700002A
:10456000F0B581B0044600F04BFA94F94560012E95
:1045700010DB04F1240503E0F0B2013E012809D963
:10458000286838B1284601F0D3FC0028F4D000F0A8
:1045900037FCF1E7FF2684F8456000F059FA00F097
:1045A0002FFA94F94470012F10DB04F1100503E099
:1045B000F8B2013F012809D9286838B1284601F02E
:1045C000B7FC0028F4D000F01BFCF1E784F844604D
:1045D00001B0BDE8F04000F03BBA00000000000070
:1045E00070B5044600F094FD40F2382CC2F2004C45
:1045F000DCF8042012B19CF8000020E041F25010D9
:10460000C2F20040420700F5404200F1070122F0EB
:10461000070218BF21F00700A2F10803CCF804300C
:104620000021CCE9060142E90211191A4160DCF8C7
:104630000420026001208CF80000CCE90211002166
:10464000002C48BF012159D0084057D124F0070061
:1046500000F11003600708BF04F10803DCF808004C
:10466000591E81424AD2604650F818EFDEF80440E5
:104670009C422CD2DEF80010C1B175464C689C42B9
:1046800018D20E68B6B174689C4217D23068A8B1CF
:1046900044689C4216D20568A5B16C689C4215D24C
:1046A0002968AE460029E9D111E000BF0CF11800DD
:1046B0000DE000BF8E46284609E000BFB64608461A
:1046C00005E000BF8646304601E000BFAE46964595
:1046D00014D0E11A02681129DEF80040046051D3B9
:1046E0000EEB030460071BD04FF0500080F31188DD
:1046F000BFF36F8FBFF34F8FFEE700BF01F054FC95
:1047000000F012F90020410708BF70BD4FF05000C3
:1047100080F31188BFF36F8FBFF34F8FFEE700BFA9
:104720000CF118006160CEF8043000BF0168A142AE
:104730000AD20868A0420BD20168A14204D20868DC
:104740000B46A042F2D304E00346084601E000BF56
:104750000B465D685919A142616802D129441C4683
:1047600059606518854201D0054607E0DCF8045021
:10477000A84203D0D0E9005008446060A3422560FD
:1047800018BF1C60DEF8040002F10804DCE9021323
:10479000091ACCF80810994238BFCCF80C109CF8D4
:1047A000001000294FF0000118BF40F00040CEE992
:1047B0000010DCF810000130CCF8100001F0F4FB20
:1047C0002046A0E70000000044F2A11321F00101FF
:1047D00040F8081C4FF0807140F8041CA0F144011F
:1047E000C0F6000340F80C3C6FF0020340E90932C8
:1047F00008467047017809B10020704741780129C7
:1048000003D08A0705D402224270481E18BF012037
:10481000704780B546F6DB30C0F6000000F004F8C3
:104820000121017041707047FBF7B4FF00000000E8
:104830000169D0E90132D1F804C09A60844553601F
:1048400008BF4A60002202610868013808600868F1
:104850007047000000000000C0B1016B0878A52877
:104860001DD102200A1812F8013CA52B1AD10B5CAD
:10487000A52B18D15378A52B18D192780430A52AEE
:10488000F0D00238C0F38F00704700BF40F28410B0
:10489000C2F200400068016B0878A528E1D0002032
:1048A000704700BF0138C0F38F0070470130C0F37C
:1048B0008F0070470000000040F28411C2F20041F6
:1048C000086880690A68D26A0968C2F138028A6198
:1048D000704700000000000070470000000000006A
:1048E0004DF25433C2F2004303604DF25410C2F251
:1048F0000040086080201060704700000000000049
:104900004DF2B073C2F2004303604DF2B030C2F218
:10491000004008604FF48070106070470000000095
:104920007047000000000000704700000000000019
:104930007047000000000000704700000000000009
:1049400002464FF0FF3142F8081F00214260C0E9E3
:1049500003220160704700000021016170470000E0
:1049600010B5D1F800C01CF1010213D000F1080409
:1049700062681368634511D853681C68644511D890
:104980005A68146864450FD85468A646236863457E
:10499000EED90BE00269D2F804E007E09646224621
:1049A00004E000BF9E4601E096461A46C1F804E0C6
:1049B000CEF808108A605160086101680131016019
:1049C00010BD000000000000D0F800C043684B603C
:1049D0009A688A609960516008610CF10101016078
:1049E0007047000000000000DFF80C00016841F48F
:1049F000700101607047000088ED00E000000000D9
:104A00004FF0500080F31188BFF36F8FBFF34F8FCB
:104A100040F22400C2F200400168002901F10101C6
:104A2000016001D0704700BF4EF60450CEF2000086
:104A30000068000608BF70474FF0500080F31188EF
:104A4000BFF36F8FBFF34F8FFEE700000000000041
:104A500040F22400C2F20040016839B1013901601E
:104A600018BF7047002080F3118870474FF0500046
:104A700080F31188BFF36F8FBFF34F8FFEE7000005
:104A800070B5002808BF70BD40F23824C2F200445F
:104A90002178002918BF4FF0004150F8042C114232
:104AA0000ED0A0F108052B68A3B14FF0500080F3A1
:104AB0001188BFF36F8FBFF34F8F00BFFEE700BFBA
:104AC0004FF0500080F31188BFF36F8FBFF34F8F0B
:104AD000FEE700BF22EA010140F8041C064600F090
:104AE00017FB56F8040CA1680144A16004F11801F9
:104AF0000B68AB420AD21968A94213D20B68AB42C9
:104B000004D219681A46A942F2D301E00A461946AE
:104B10005368D618AE420AD02B188B420DD00B46E4
:104B200012E000BF1A465368D618AE42F4D11844BA
:104B3000154650602B188B42F1D16368994203D01F
:104B4000D1E9003108446860AA422B6018BF1560A3
:104B5000606901306061BDE8704001F025BA000075
:104B60004EF210000021CEF2000044F6D352C1F202
:104B700062020160816040F21C01C2F200410968DA
:104B8000A1FB02124FF0FF3101EB921141600721AE
:104B900001607047000000004DF60C0CC2F2004CA2
:104BA000DCF80030002B3FD0634653F8082FE2B307
:104BB000634653F8102FC2B3634653F8182FA2B3BD
:104BC000634653F8202F82B3634653F8282F62B30D
:104BD000634653F8302F42B3634653F8382F22B35D
:104BE000634653F8402F02B3634653F8482FE2B1AF
:104BF000634653F8502FC2B1634653F8582FA2B101
:104C0000634653F8602F82B1634653F8682F62B150
:104C1000634653F8702F42B15CF8782F6346002A40
:104C200008BFC3E9001070476346C3E9001070472E
:104C300070B515460E460446FFF7E2FE94F84400B0
:104C4000FF280DD094F84500FF2810D0FFF700FF93
:104C5000A06BA0B12046BDE87040FFF781BC00BF4B
:104C6000002084F8440094F84500FF28EED100208D
:104C700084F84500FFF7ECFEA06B0028EAD104F1B0
:104C8000240031462A4600F0FFF82046BDE8704077
:104C9000FFF766BC0000000070B588B340F28414D2
:104CA000C2F20044616949B14FF0500080F31188AD
:104CB000BFF36F8FBFF34F8FFEE700BF61690646FA
:104CC00001316161A569216804310846FFF7B0FD33
:104CD0002068AD19456005D3206A21680431FFF7CB
:104CE0003FFE08E0E06921680431FFF739FEE06A21
:104CF000854238BFE56201F057F9002818BF70BD42
:104D00004EF604504FF08051CEF200000160BFF328
:104D10004F8FBFF36F8F70BD70B588B1D1B140F2C6
:104D20008414C2F200446269F2B14FF0500080F383
:104D30001188BFF36F8FBFF34F8F00BFFEE700BF37
:104D40004FF0500080F31188BFF36F8FBFF34F8F88
:104D5000FEE700BF4FF0500080F31188BFF36F8F64
:104D6000BFF34F8FFEE700BF626901326261A26943
:104D700003689A42194403D2994203D316E000BF54
:104D8000994201D3914211D901608E1AA569206818
:104D90000430FFF74DFD2068AD19456008D3206A47
:104DA00021680431FFF7DCFD0BE000BF016008E083
:104DB000E06921680431FFF7D3FDE06A854238BF1E
:104DC000E56201F0F1F8002818BF70BD4EF60450FE
:104DD0004FF08051CEF200000160BFF34F8FBFF360
:104DE0006F8F70BD0000000040F28411C2F20041DC
:104DF0008A6B026089694160704700000000000012
:104E000040F284100121C2F20040016370470000AB
:104E100070B5D8B140F284140D46C2F20044216846
:104E20001831FFF79DFDA66920680430FFF700FDEB
:104E3000681C15D02068AD19456019D3206A216817
:104E40000431BDE87040FFF78BBD00BF4FF050004C
:104E500080F31188BFF36F8FBFF34F8FFEE700BF62
:104E600054F8500B011D2046BDE87040FFF7ACBD63
:104E7000E06921680431FFF773FDE06A854238BFBD
:104E8000E56270BD00000000F0B581B0C0B140F235
:104E900084140D46C2F20044164621681831FFF70B
:104EA00093FDA76920680430FFF7C2FC96B154F85F
:104EB000500B011D204601B0BDE8F040FFF784BD56
:104EC0004FF0500080F31188BFF36F8FBFF34F8F07
:104ED000FEE700BF2068ED19456007D3206A21680E
:104EE000043101B0BDE8F040FFF73ABDE069216848
:104EF0000431FFF735FDE06A854238BFE56201B055
:104F0000F0BD00000000000070B508B340F284144A
:104F10001546C2F20044626922B3226841F00041A2
:104F2000916121681831FFF74FFDA66920680430B0
:104F3000FFF77EFC681C1FD02068AD19456023D3A5
:104F4000206A21680431BDE87040FFF709BD00BF49
:104F50004FF0500080F31188BFF36F8FBFF34F8F76
:104F6000FEE700BF4FF0500080F31188BFF36F8F52
:104F7000BFF34F8FFEE700BF54F8500B011D2046D2
:104F8000BDE87040FFF720BDE06921680431FFF7FC
:104F9000E7FCE06A854238BFE56270BD00000000B2
:104FA00070B540F28415C2F200456A6922B3C66842
:104FB00041F0004101604EB3FFF73AFC341D20463A
:104FC000FFF736FCF06A696A884240F6F04188BF14
:104FD000686200EB8000C2F2004101EB80002146D4
:104FE000FFF7F2FCF06A2968C96A884298BF70BD71
:104FF0000120286370BD00BF4FF0500080F311887E
:10500000BFF36F8FBFF34F8FFEE700BF4FF050002D
:1050100080F31188BFF36F8FBFF34F8FFEE700005F
:1050200010B588B0002005A9CDE9050006A804AA9E
:10503000FFF756FC059800283ED0069C002C45D072
:10504000049A5C21079107995C2949D1079920634B
:10505000022084F8590007A80021CDE9001043F68A
:10506000E17029A1C0F6000000230294FFF700F8C8
:105070002046FEF76DFE40F284140798C2F2004409
:10508000A062B0B101F008F8411C33D0012810D162
:105090004FF0500080F31188BFF36F8FBFF34F8F35
:1050A0004FF0FF30E062012020610020A06100F09D
:1050B000C7F908B010BD00BF4FF0500080F3118851
:1050C000BFF36F8FBFF34F8FFEE700BF4FF050006D
:1050D00080F31188BFF36F8FBFF34F8FFEE700BFE0
:1050E0004FF0500080F31188BFF36F8FBFF34F8FE5
:1050F000FEE700BF4FF0500080F31188BFF36F8FC1
:10510000BFF34F8FFEE700BF49444C45000000004D
:1051100040F28410C2F200404169013141617047A0
:1051200010B540F28414C2F20044606910B101204D
:10513000206310BD002020632068006B0168B1F17E
:10514000A53F0BD14168B1F1A53F07D18168B1F10D
:10515000A53F03D1C068B0F1A53F04D02068216805
:105160003431FFF7E5FB606A40F6F04CC2F2004CC8
:1051700000EB80025CF822300CEB820253B15168E4
:1051800002F108034968516099421FD0C968216043
:10519000606210BD283AF8B100EB800351690CEB56
:1051A000830319BB012817D0116819BB022813D03B
:1051B00052F8141C11BB03280ED052F8281C0438D6
:1051C0000029A2F15002E6D02832D8E749685160A0
:1051D000C9682160606210BD4FF0500080F31188F3
:1051E000BFF36F8FBFF34F8FFEE700BFA3F1140231
:1051F0000138C4E7A3F128020238C0E7A3F13C025A
:105200000338BCE70000000010B582B080B1202157
:1052100001910199202915D100210160011D044649
:105220000846FFF78DFB01202077204602B010BD15
:105230004FF0500080F31188BFF36F8FBFF34F8F93
:10524000FEE700BF4FF0500080F31188BFF36F8F6F
:10525000BFF34F8FFEE7000060B1B1F1807F13D341
:105260004FF0500080F31188BFF36F8FBFF34F8F63
:10527000FEE700BF4FF0500080F31188BFF36F8F3F
:10528000BFF34F8FFEE700BF2DE9F041044600F168
:105290000C080D46FFF73CFF26692068464540EAAA
:1052A000050020601ED000270AE000BF35B141F0A4
:1052B0000071DB0148BF1743FFF772FE46450DD072
:1052C00030462168D6E9003623F07F425D0101EACD
:1052D0000205EBD59542EAD0F0E700BF2068F9431C
:1052E00002E000BF4FF0FF310840206000F05CFE9C
:1052F0002068BDE8F08100002DE9F04760B1B1F110
:10530000807F13D34FF0500080F31188BFF36F8F6D
:10531000BFF34F8FFEE700BF4FF0500080F31188BE
:10532000BFF36F8FBFF34F8FFEE700BF91B1994678
:1053300090468A460746089C00F012FDA4B198B931
:105340004FF0500080F31188BFF36F8FBFF34F8F82
:10535000FEE700BF4FF0500080F31188BFF36F8F5E
:10536000BFF34F8FFEE700BFFFF7D2FE3D68384620
:1053700005EA0A025146B2FA82F3B2EB0A0618BFF6
:105380000126B9F1000F08BF5E09FEB124B3434600
:10539000B8F1000F18BF0123B9F1000F00F10400AC
:1053A0004FEA0366224606F1806608BF1E063143B7
:1053B000FFF7AAFD00F0F8FDA0B1FFF77DFA044663
:1053C00080011FD524F07F40BDE8F087B8F1000FC1
:1053D0001CBF25EA0101016000F0E6FD2846BDE89A
:1053E000F08700BF4EF604504FF08051CEF200001F
:1053F0000160BFF34F8FBFF36F8FFFF75DFA044675
:105400008001DFD4FFF7FCFA3C6814EA0A00A0EB45
:105410000A0118BF0120B1FA81F1B9F1000F18BFDC
:105420004809B8F1000F1EBF002824EA0A003860BE
:10543000FFF70EFB24F07F40BDE8F087000000007E
:10544000B0B584B04EF2004C4CF27021CEF2000C9C
:10545000C4F20F114B1CDCF800299A420AD14FF01C
:10546000500080F31188BFF36F8FBFF34F8F00BFE1
:10547000FEE700BFDCF800298A4209D14FF0500056
:1054800080F31188BFF36F8FBFF34F8FFEE700BF2C
:105490009CF800100291FF218CF800109CF800107D
:1054A0008DF8071040F258219DF80720C2F2004104
:1054B00002F050020A7007224A609DF90720B2F1FB
:1054C000FF3F6BDC0322D31C4B609DF807004000BC
:1054D0008DF807009DF90700B0F1FF3F25DC931C14
:1054E0004B609DF8070040008DF807009DF907000C
:1054F000B0F1FF3FDFBF531C4B609DF80700400039
:10550000DEBF8DF807009DF90700B0F1FF3F0CDC0E
:105510004A60043A9DF8070040008DF807009DF9A5
:105520000700B0F1FF3FCEDD131D032B36D14FF442
:105530004070486002988CF80000DCF8200940F4C4
:105540007000CCF82009DCF8200940F07040CCF85D
:105550002009FFF705FB40F224040025C2F20044B5
:105560002560FFF741FA4EF63470CEF20000016874
:1055700041F040410160FEF7FFFDFFF7D1FD0395CB
:1055800020684FF0500181F31188BFF36F8FBFF394
:105590004F8F01300ED000BFFEE700BF4FF050002C
:1055A00080F31188BFF36F8FBFF34F8FFEE700BF0B
:1055B000039838B9039828B90398002804BF0398C2
:1055C0000028F5D0002004B0B0BD000000000000AD
:1055D00080B54FF0500080F31188BFF36F8FBFF399
:1055E0004F8F00F0D5FB30B14EF604504FF0805194
:1055F000CEF200000160002080F3118880BD000021
:1056000070B582B060B1ABB1F1B9EAB14FF0500002
:1056100080F31188BFF36F8FBFF34F8FFEE700BF9A
:105620004FF0500080F31188BFF36F8FBFF34F8F9F
:10563000FEE700BF4FF0500080F31188BFF36F8F7B
:10564000BFF34F8FFEE700BF51B14AB94FF0500092
:1056500080F31188BFF36F8FBFF34F8FFEE700BF5A
:1056600050250195019D502D2ED1019D0125002928
:1056700083F8465008BF1A46069E1C461A60C3E9C6
:105680000F01FFF7BDF9D4E90F012268002501FBE6
:105690000023013800FB0120A5636260C4E90230E9
:1056A000FF2084F8440084F8450004F11000FFF75F
:1056B00047F904F12400FFF743F9FFF7C9F984F82B
:1056C0004C60204602B070BD4FF0500080F311884E
:1056D000BFF36F8FBFF34F8FFEE7000000000000A5
:1056E0002DE9F04F83B00292C0B104461D46F9B1D6
:1056F000022D02D1E06B01285CD116460F4600F066
:105700002FFB18BB16B34FF0500080F31188BFF386
:105710006F8FBFF34F8F00BFFEE700BF4FF0500009
:1057200080F31188BFF36F8FBFF34F8FFEE700BF89
:10573000206C0028DCD04FF0500080F31188BFF3BC
:105740006F8FBFF34F8F00BFFEE700BFFFF758F921
:10575000022DA06B65D0E16B884262D302980028CD
:1057600000F018816846FFF73FFBFFF771F9FFF77C
:10577000CFFCFFF745F994F84400FF2802D1002040
:1057800084F8440094F84500FF2802D1002084F8F2
:105790004500FFF75DF9684602A900F021FA98B1CB
:1057A0002046FEF7DDFE00F0FFFB002003B0BDE861
:1057B000F08F00BF4FF0500080F31188BFF36F8F60
:1057C000BFF34F8FFEE700BF04F11008FFF718F991
:1057D000D4F83890E66BFFF73BF9B14516D1029942
:1057E0004046FFF715FB2046FEF7BAFE00F0DCFB53
:1057F00088B94EF604504FF08051CEF2000001609F
:10580000BFF34F8FBFF36F8F05E000BF2046FEF759
:10581000A7FE00F0C9FBFFF7F3F8A06BE16B88422D
:1058200066D2A66B226CDAB139462DB3E068FAF77E
:1058300040FEE168206C2268091A9142E16003D2BF
:105840004042A1680844E060A81E3146B0FA80F0EA
:10585000002E18BF012140090840361A18E000BF89
:105860002068A8B9A06800F01BFBB0FA80F0002106
:10587000A16040090DE000BF6068FAF71AFED4E9A4
:105880000101226C10446060884201D3206860608E
:105890000120711CA16354F8241FA9B1204600F017
:1058A00047FB50B14EF604504FF08051CEF200004D
:1058B0000160BFF34F8FBFF36F8FFFF7C9F801206F
:1058C00003B0BDE8F08F00BF0028F6D14EF60450BB
:1058D0004FF08051CEF200000160BFF34F8FBFF355
:1058E0006F8FFFF7B5F8012003B0BDE8F08F00BF60
:1058F000E94602AE0CE000BF2046FEF731FE00F0A4
:1059000053FBFFF77DF8A06BE16B8842FFF489AF92
:10591000029800283ED0FFF79BF8FFF7F9FBFFF74E
:105920006FF894F84400FF2802D1002084F8440066
:1059300094F84500FF2802D1002084F84500FFF7C5
:1059400087F84846314600F04BF900287FF428AF2D
:10595000FFF756F8D4F838A0D4F83CB0FFF778F841
:10596000DA45C9D102994046FFF752FA2046FEF7C0
:10597000F7FD00F019FB0028C3D14EF604504FF09C
:105980008051CEF200000160BFF34F8FBFF36F8FE5
:10599000B7E700BFFFF75CF8002003B0BDE8F08F69
:1059A0002DE9F04F83B0029290B1044615460029CC
:1059B00048D00E4600F0D4F9A0B99DB14FF0500088
:1059C00080F31188BFF36F8FBFF34F8FFEE700BFE7
:1059D0004FF0500080F31188BFF36F8FBFF34F8FEC
:1059E000FEE700BFFFF70CF8D4F838A0BAF1000FBB
:1059F00036D0226C52B1D4E902311144304699427A
:105A0000E16001D32168E160FAF753FDAAF10100DA
:105A1000A06354F8100F70B1204600F089FA50B11D
:105A20004EF604504FF08051CEF200000160BFF3FB
:105A30004F8FBFF36F8F0124FFF70AF8204603B0A2
:105A4000BDE8F08F206C0028B3D04FF0500080F3F9
:105A50001188BFF36F8FBFF34F8F00BFFEE700BF0A
:105A60000298002800F0B4806846FFF7BDF9FEF701
:105A7000EFFFFFF74DFBFEF7C3FF94F84400FF284C
:105A800002D1002084F8440094F8450004F1240871
:105A9000FF2802D1002084F84500FEF7D9FF6846B0
:105AA00002A900F09DF878B12046FEF759FD00F0FC
:105AB0007BFAFEF7A5FFA56BFEF7CAFF2DBB0024FE
:105AC000204603B0BDE8F08FFEF79AFFA56BFEF706
:105AD000BFFF2DB12046FEF743FD00F065FA14E04C
